{
  "contractName": "ERC721A",
  "abi": [
    {
      "inputs": [
        {
          "internalType": "string",
          "name": "name_",
          "type": "string"
        },
        {
          "internalType": "string",
          "name": "symbol_",
          "type": "string"
        },
        {
          "internalType": "uint256",
          "name": "maxBatchSize_",
          "type": "uint256"
        },
        {
          "internalType": "uint256",
          "name": "collectionSize_",
          "type": "uint256"
        }
      ],
      "stateMutability": "nonpayable",
      "type": "constructor"
    },
    {
      "anonymous": false,
      "inputs": [
        {
          "indexed": true,
          "internalType": "address",
          "name": "owner",
          "type": "address"
        },
        {
          "indexed": true,
          "internalType": "address",
          "name": "approved",
          "type": "address"
        },
        {
          "indexed": true,
          "internalType": "uint256",
          "name": "tokenId",
          "type": "uint256"
        }
      ],
      "name": "Approval",
      "type": "event"
    },
    {
      "anonymous": false,
      "inputs": [
        {
          "indexed": true,
          "internalType": "address",
          "name": "owner",
          "type": "address"
        },
        {
          "indexed": true,
          "internalType": "address",
          "name": "operator",
          "type": "address"
        },
        {
          "indexed": false,
          "internalType": "bool",
          "name": "approved",
          "type": "bool"
        }
      ],
      "name": "ApprovalForAll",
      "type": "event"
    },
    {
      "anonymous": false,
      "inputs": [
        {
          "indexed": true,
          "internalType": "address",
          "name": "from",
          "type": "address"
        },
        {
          "indexed": true,
          "internalType": "address",
          "name": "to",
          "type": "address"
        },
        {
          "indexed": true,
          "internalType": "uint256",
          "name": "tokenId",
          "type": "uint256"
        }
      ],
      "name": "Transfer",
      "type": "event"
    },
    {
      "inputs": [],
      "name": "nextOwnerToExplicitlySet",
      "outputs": [
        {
          "internalType": "uint256",
          "name": "",
          "type": "uint256"
        }
      ],
      "stateMutability": "view",
      "type": "function"
    },
    {
      "inputs": [],
      "name": "totalSupply",
      "outputs": [
        {
          "internalType": "uint256",
          "name": "",
          "type": "uint256"
        }
      ],
      "stateMutability": "view",
      "type": "function"
    },
    {
      "inputs": [
        {
          "internalType": "uint256",
          "name": "index",
          "type": "uint256"
        }
      ],
      "name": "tokenByIndex",
      "outputs": [
        {
          "internalType": "uint256",
          "name": "",
          "type": "uint256"
        }
      ],
      "stateMutability": "view",
      "type": "function"
    },
    {
      "inputs": [
        {
          "internalType": "address",
          "name": "owner",
          "type": "address"
        },
        {
          "internalType": "uint256",
          "name": "index",
          "type": "uint256"
        }
      ],
      "name": "tokenOfOwnerByIndex",
      "outputs": [
        {
          "internalType": "uint256",
          "name": "",
          "type": "uint256"
        }
      ],
      "stateMutability": "view",
      "type": "function"
    },
    {
      "inputs": [
        {
          "internalType": "bytes4",
          "name": "interfaceId",
          "type": "bytes4"
        }
      ],
      "name": "supportsInterface",
      "outputs": [
        {
          "internalType": "bool",
          "name": "",
          "type": "bool"
        }
      ],
      "stateMutability": "view",
      "type": "function"
    },
    {
      "inputs": [
        {
          "internalType": "address",
          "name": "owner",
          "type": "address"
        }
      ],
      "name": "balanceOf",
      "outputs": [
        {
          "internalType": "uint256",
          "name": "",
          "type": "uint256"
        }
      ],
      "stateMutability": "view",
      "type": "function"
    },
    {
      "inputs": [
        {
          "internalType": "uint256",
          "name": "tokenId",
          "type": "uint256"
        }
      ],
      "name": "ownerOf",
      "outputs": [
        {
          "internalType": "address",
          "name": "",
          "type": "address"
        }
      ],
      "stateMutability": "view",
      "type": "function"
    },
    {
      "inputs": [],
      "name": "name",
      "outputs": [
        {
          "internalType": "string",
          "name": "",
          "type": "string"
        }
      ],
      "stateMutability": "view",
      "type": "function"
    },
    {
      "inputs": [],
      "name": "symbol",
      "outputs": [
        {
          "internalType": "string",
          "name": "",
          "type": "string"
        }
      ],
      "stateMutability": "view",
      "type": "function"
    },
    {
      "inputs": [
        {
          "internalType": "uint256",
          "name": "tokenId",
          "type": "uint256"
        }
      ],
      "name": "tokenURI",
      "outputs": [
        {
          "internalType": "string",
          "name": "",
          "type": "string"
        }
      ],
      "stateMutability": "view",
      "type": "function"
    },
    {
      "inputs": [
        {
          "internalType": "address",
          "name": "to",
          "type": "address"
        },
        {
          "internalType": "uint256",
          "name": "tokenId",
          "type": "uint256"
        }
      ],
      "name": "approve",
      "outputs": [],
      "stateMutability": "nonpayable",
      "type": "function"
    },
    {
      "inputs": [
        {
          "internalType": "uint256",
          "name": "tokenId",
          "type": "uint256"
        }
      ],
      "name": "getApproved",
      "outputs": [
        {
          "internalType": "address",
          "name": "",
          "type": "address"
        }
      ],
      "stateMutability": "view",
      "type": "function"
    },
    {
      "inputs": [
        {
          "internalType": "address",
          "name": "operator",
          "type": "address"
        },
        {
          "internalType": "bool",
          "name": "approved",
          "type": "bool"
        }
      ],
      "name": "setApprovalForAll",
      "outputs": [],
      "stateMutability": "nonpayable",
      "type": "function"
    },
    {
      "inputs": [
        {
          "internalType": "address",
          "name": "owner",
          "type": "address"
        },
        {
          "internalType": "address",
          "name": "operator",
          "type": "address"
        }
      ],
      "name": "isApprovedForAll",
      "outputs": [
        {
          "internalType": "bool",
          "name": "",
          "type": "bool"
        }
      ],
      "stateMutability": "view",
      "type": "function"
    },
    {
      "inputs": [
        {
          "internalType": "address",
          "name": "from",
          "type": "address"
        },
        {
          "internalType": "address",
          "name": "to",
          "type": "address"
        },
        {
          "internalType": "uint256",
          "name": "tokenId",
          "type": "uint256"
        }
      ],
      "name": "transferFrom",
      "outputs": [],
      "stateMutability": "nonpayable",
      "type": "function"
    },
    {
      "inputs": [
        {
          "internalType": "address",
          "name": "from",
          "type": "address"
        },
        {
          "internalType": "address",
          "name": "to",
          "type": "address"
        },
        {
          "internalType": "uint256",
          "name": "tokenId",
          "type": "uint256"
        }
      ],
      "name": "safeTransferFrom",
      "outputs": [],
      "stateMutability": "nonpayable",
      "type": "function"
    },
    {
      "inputs": [
        {
          "internalType": "address",
          "name": "from",
          "type": "address"
        },
        {
          "internalType": "address",
          "name": "to",
          "type": "address"
        },
        {
          "internalType": "uint256",
          "name": "tokenId",
          "type": "uint256"
        },
        {
          "internalType": "bytes",
          "name": "_data",
          "type": "bytes"
        }
      ],
      "name": "safeTransferFrom",
      "outputs": [],
      "stateMutability": "nonpayable",
      "type": "function"
    }
  ],
  "bytecode": "0x60c06040526000805560006007553480156200001a57600080fd5b5060405162001a1938038062001a198339810160408190526200003d91620002bd565b60008111620000aa5760405162461bcd60e51b815260206004820152602e60248201527f455243373231413a20636f6c6c656374696f6e206d757374206861766520612060448201526d6e6f6e7a65726f20737570706c7960901b60648201526084015b60405180910390fd5b600082116200010c5760405162461bcd60e51b815260206004820152602760248201527f455243373231413a206d61782062617463682073697a65206d757374206265206044820152666e6f6e7a65726f60c81b6064820152608401620000a1565b8351620001219060019060208701906200014a565b508251620001379060029060208601906200014a565b5060a09190915260805250620003749050565b828054620001589062000337565b90600052602060002090601f0160209004810192826200017c5760008555620001c7565b82601f106200019757805160ff1916838001178555620001c7565b82800160010185558215620001c7579182015b82811115620001c7578251825591602001919060010190620001aa565b50620001d5929150620001d9565b5090565b5b80821115620001d55760008155600101620001da565b634e487b7160e01b600052604160045260246000fd5b600082601f8301126200021857600080fd5b81516001600160401b0380821115620002355762000235620001f0565b604051601f8301601f19908116603f01168101908282118183101715620002605762000260620001f0565b816040528381526020925086838588010111156200027d57600080fd5b600091505b83821015620002a1578582018301518183018401529082019062000282565b83821115620002b35760008385830101525b9695505050505050565b60008060008060808587031215620002d457600080fd5b84516001600160401b0380821115620002ec57600080fd5b620002fa8883890162000206565b955060208701519150808211156200031157600080fd5b50620003208782880162000206565b604087015160609097015195989097509350505050565b600181811c908216806200034c57607f821691505b602082108114156200036e57634e487b7160e01b600052602260045260246000fd5b50919050565b60805160a05161167b6200039e60003960008181610e230152610e4d01526000505061167b6000f3fe608060405234801561001057600080fd5b506004361061010b5760003560e01c80634f6ccce7116100a2578063a22cb46511610071578063a22cb46514610219578063b88d4fde1461022c578063c87b56dd1461023f578063d7224ba014610252578063e985e9c51461025b57600080fd5b80634f6ccce7146101d85780636352211e146101eb57806370a08231146101fe57806395d89b411461021157600080fd5b806318160ddd116100de57806318160ddd1461018d57806323b872dd1461019f5780632f745c59146101b257806342842e0e146101c557600080fd5b806301ffc9a71461011057806306fdde0314610138578063081812fc1461014d578063095ea7b314610178575b600080fd5b61012361011e366004611161565b610297565b60405190151581526020015b60405180910390f35b610140610304565b60405161012f91906111d6565b61016061015b3660046111e9565b610396565b6040516001600160a01b03909116815260200161012f565b61018b61018636600461121e565b610426565b005b6000545b60405190815260200161012f565b61018b6101ad366004611248565b61053e565b6101916101c036600461121e565b610549565b61018b6101d3366004611248565b6106b7565b6101916101e63660046111e9565b6106d2565b6101606101f93660046111e9565b610734565b61019161020c366004611284565b610746565b6101406107d7565b61018b61022736600461129f565b6107e6565b61018b61023a3660046112f1565b6108ab565b61014061024d3660046111e9565b6108e4565b61019160075481565b6101236102693660046113cd565b6001600160a01b03918216600090815260066020908152604080832093909416825291909152205460ff1690565b60006001600160e01b031982166380ac58cd60e01b14806102c857506001600160e01b03198216635b5e139f60e01b145b806102e357506001600160e01b0319821663780e9d6360e01b145b806102fe57506301ffc9a760e01b6001600160e01b03198316145b92915050565b60606001805461031390611400565b80601f016020809104026020016040519081016040528092919081815260200182805461033f90611400565b801561038c5780601f106103615761010080835404028352916020019161038c565b820191906000526020600020905b81548152906001019060200180831161036f57829003601f168201915b5050505050905090565b60006103a3826000541190565b61040a5760405162461bcd60e51b815260206004820152602d60248201527f455243373231413a20617070726f76656420717565727920666f72206e6f6e6560448201526c3c34b9ba32b73a103a37b5b2b760991b60648201526084015b60405180910390fd5b506000908152600560205260409020546001600160a01b031690565b600061043182610734565b9050806001600160a01b0316836001600160a01b031614156104a05760405162461bcd60e51b815260206004820152602260248201527f455243373231413a20617070726f76616c20746f2063757272656e74206f776e60448201526132b960f11b6064820152608401610401565b336001600160a01b03821614806104bc57506104bc8133610269565b61052e5760405162461bcd60e51b815260206004820152603960248201527f455243373231413a20617070726f76652063616c6c6572206973206e6f74206f60448201527f776e6572206e6f7220617070726f76656420666f7220616c6c000000000000006064820152608401610401565b6105398383836109be565b505050565b610539838383610a1a565b600061055483610746565b82106105ad5760405162461bcd60e51b815260206004820152602260248201527f455243373231413a206f776e657220696e646578206f7574206f6620626f756e604482015261647360f01b6064820152608401610401565b600080549080805b83811015610657576000818152600360209081526040918290208251808401909352546001600160a01b038116808452600160a01b90910467ffffffffffffffff16918301919091521561060857805192505b876001600160a01b0316836001600160a01b031614156106445786841415610636575093506102fe92505050565b8361064081611451565b9450505b508061064f81611451565b9150506105b5565b5060405162461bcd60e51b815260206004820152602e60248201527f455243373231413a20756e61626c6520746f2067657420746f6b656e206f662060448201526d0deeedccae440c4f240d2dcc8caf60931b6064820152608401610401565b610539838383604051806020016040528060008152506108ab565b6000805482106107305760405162461bcd60e51b815260206004820152602360248201527f455243373231413a20676c6f62616c20696e646578206f7574206f6620626f756044820152626e647360e81b6064820152608401610401565b5090565b600061073f82610da1565b5192915050565b60006001600160a01b0382166107b25760405162461bcd60e51b815260206004820152602b60248201527f455243373231413a2062616c616e636520717565727920666f7220746865207a60448201526a65726f206164647265737360a81b6064820152608401610401565b506001600160a01b03166000908152600460205260409020546001600160801b031690565b60606002805461031390611400565b6001600160a01b03821633141561083f5760405162461bcd60e51b815260206004820152601a60248201527f455243373231413a20617070726f766520746f2063616c6c65720000000000006044820152606401610401565b3360008181526006602090815260408083206001600160a01b03871680855290835292819020805460ff191686151590811790915590519081529192917f17307eab39ab6107e8899845ad3d59bd9653f200f220920489ca2b5937696c31910160405180910390a35050565b6108b6848484610a1a565b6108c284848484610f4b565b6108de5760405162461bcd60e51b81526004016104019061146c565b50505050565b60606108f1826000541190565b6109555760405162461bcd60e51b815260206004820152602f60248201527f4552433732314d657461646174613a2055524920717565727920666f72206e6f60448201526e3732bc34b9ba32b73a103a37b5b2b760891b6064820152608401610401565b600061096c60408051602081019091526000815290565b9050600081511161098c57604051806020016040528060008152506109b7565b806109968461104a565b6040516020016109a79291906114bf565b6040516020818303038152906040525b9392505050565b60008281526005602052604080822080546001600160a01b0319166001600160a01b0387811691821790925591518593918516917f8c5be1e5ebec7d5bd14f71427d1e84f3dd0314c0f7b2291e5b200ac8c7c3b92591a4505050565b6000610a2582610da1565b80519091506000906001600160a01b0316336001600160a01b03161480610a5c575033610a5184610396565b6001600160a01b0316145b80610a6e57508151610a6e9033610269565b905080610ad85760405162461bcd60e51b815260206004820152603260248201527f455243373231413a207472616e736665722063616c6c6572206973206e6f74206044820152711bdddb995c881b9bdc88185c1c1c9bdd995960721b6064820152608401610401565b846001600160a01b031682600001516001600160a01b031614610b4c5760405162461bcd60e51b815260206004820152602660248201527f455243373231413a207472616e736665722066726f6d20696e636f72726563746044820152651037bbb732b960d11b6064820152608401610401565b6001600160a01b038416610bb05760405162461bcd60e51b815260206004820152602560248201527f455243373231413a207472616e7366657220746f20746865207a65726f206164604482015264647265737360d81b6064820152608401610401565b610bc060008484600001516109be565b6001600160a01b0385166000908152600460205260408120805460019290610bf29084906001600160801b03166114fe565b82546101009290920a6001600160801b038181021990931691831602179091556001600160a01b03861660009081526004602052604081208054600194509092610c3e91859116611526565b82546001600160801b039182166101009390930a9283029190920219909116179055506040805180820182526001600160a01b03808716825267ffffffffffffffff428116602080850191825260008981526003909152948520935184549151909216600160a01b026001600160e01b03199091169190921617179055610cc6846001611551565b6000818152600360205260409020549091506001600160a01b0316610d5857610cf0816000541190565b15610d585760408051808201825284516001600160a01b03908116825260208087015167ffffffffffffffff9081168285019081526000878152600390935294909120925183549451909116600160a01b026001600160e01b03199094169116179190911790555b83856001600160a01b0316876001600160a01b03167fddf252ad1be2c89b69c2b068fc378daa952ba7f163c4a11628f55a4df523b3ef60405160405180910390a4505050505050565b6040805180820190915260008082526020820152610dc0826000541190565b610e1f5760405162461bcd60e51b815260206004820152602a60248201527f455243373231413a206f776e657220717565727920666f72206e6f6e657869736044820152693a32b73a103a37b5b2b760b11b6064820152608401610401565b60007f00000000000000000000000000000000000000000000000000000000000000008310610e8057610e727f000000000000000000000000000000000000000000000000000000000000000084611569565b610e7d906001611551565b90505b825b818110610eea576000818152600360209081526040918290208251808401909352546001600160a01b038116808452600160a01b90910467ffffffffffffffff169183019190915215610ed757949350505050565b5080610ee281611580565b915050610e82565b5060405162461bcd60e51b815260206004820152602f60248201527f455243373231413a20756e61626c6520746f2064657465726d696e652074686560448201526e1037bbb732b91037b3103a37b5b2b760891b6064820152608401610401565b60006001600160a01b0384163b1561103e57604051630a85bd0160e11b81526001600160a01b0385169063150b7a0290610f8f903390899088908890600401611597565b6020604051808303816000875af1925050508015610fca575060408051601f3d908101601f19168201909252610fc7918101906115d4565b60015b611024573d808015610ff8576040519150601f19603f3d011682016040523d82523d6000602084013e610ffd565b606091505b50805161101c5760405162461bcd60e51b81526004016104019061146c565b805181602001fd5b6001600160e01b031916630a85bd0160e11b149050611042565b5060015b949350505050565b60608161106e5750506040805180820190915260018152600360fc1b602082015290565b8160005b8115611098578061108281611451565b91506110919050600a83611607565b9150611072565b60008167ffffffffffffffff8111156110b3576110b36112db565b6040519080825280601f01601f1916602001820160405280156110dd576020820181803683370190505b5090505b8415611042576110f2600183611569565b91506110ff600a8661161b565b61110a906030611551565b60f81b81838151811061111f5761111f61162f565b60200101906001600160f81b031916908160001a905350611141600a86611607565b94506110e1565b6001600160e01b03198116811461115e57600080fd5b50565b60006020828403121561117357600080fd5b81356109b781611148565b60005b83811015611199578181015183820152602001611181565b838111156108de5750506000910152565b600081518084526111c281602086016020860161117e565b601f01601f19169290920160200192915050565b6020815260006109b760208301846111aa565b6000602082840312156111fb57600080fd5b5035919050565b80356001600160a01b038116811461121957600080fd5b919050565b6000806040838503121561123157600080fd5b61123a83611202565b946020939093013593505050565b60008060006060848603121561125d57600080fd5b61126684611202565b925061127460208501611202565b9150604084013590509250925092565b60006020828403121561129657600080fd5b6109b782611202565b600080604083850312156112b257600080fd5b6112bb83611202565b9150602083013580151581146112d057600080fd5b809150509250929050565b634e487b7160e01b600052604160045260246000fd5b6000806000806080858703121561130757600080fd5b61131085611202565b935061131e60208601611202565b925060408501359150606085013567ffffffffffffffff8082111561134257600080fd5b818701915087601f83011261135657600080fd5b813581811115611368576113686112db565b604051601f8201601f19908116603f01168101908382118183101715611390576113906112db565b816040528281528a60208487010111156113a957600080fd5b82602086016020830137600060208483010152809550505050505092959194509250565b600080604083850312156113e057600080fd5b6113e983611202565b91506113f760208401611202565b90509250929050565b600181811c9082168061141457607f821691505b6020821081141561143557634e487b7160e01b600052602260045260246000fd5b50919050565b634e487b7160e01b600052601160045260246000fd5b60006000198214156114655761146561143b565b5060010190565b60208082526033908201527f455243373231413a207472616e7366657220746f206e6f6e204552433732315260408201527232b1b2b4bb32b91034b6b83632b6b2b73a32b960691b606082015260800190565b600083516114d181846020880161117e565b8351908301906114e581836020880161117e565b64173539b7b760d91b9101908152600501949350505050565b60006001600160801b038381169083168181101561151e5761151e61143b565b039392505050565b60006001600160801b038083168185168083038211156115485761154861143b565b01949350505050565b600082198211156115645761156461143b565b500190565b60008282101561157b5761157b61143b565b500390565b60008161158f5761158f61143b565b506000190190565b6001600160a01b03858116825284166020820152604081018390526080606082018190526000906115ca908301846111aa565b9695505050505050565b6000602082840312156115e657600080fd5b81516109b781611148565b634e487b7160e01b600052601260045260246000fd5b600082611616576116166115f1565b500490565b60008261162a5761162a6115f1565b500690565b634e487b7160e01b600052603260045260246000fdfea2646970667358221220be72dcdf646655aaccf488700c1eef0c5f0b5a6a38ca91dfcc8be6db3129517864736f6c634300080b0033",
  "immutableReferences": {
    "1291": [
      {
        "length": 32,
        "start": 3619
      },
      {
        "length": 32,
        "start": 3661
      }
    ]
  },
  "source": "// SPDX-License-Identifier: MIT\n\npragma solidity ^0.8.0;\n\nimport \"./IERC721.sol\";\nimport \"./IERC721Receiver.sol\";\nimport \"./IERC721Metadata.sol\";\nimport \"./IERC721Enumerable.sol\";\nimport \"./Address.sol\";\nimport \"./Context.sol\";\nimport \"./Strings.sol\";\nimport \"./ERC165.sol\";\n\n/**\n * @dev Implementation of https://eips.ethereum.org/EIPS/eip-721[ERC721] Non-Fungible Token Standard, including\n * the Metadata and Enumerable extension. Built to optimize for lower gas during batch mints.\n *\n * Assumes serials are sequentially minted starting at 0 (e.g. 0, 1, 2, 3..).\n *\n * Assumes the number of issuable tokens (collection size) is capped and fits in a uint128.\n *\n * Does not support burning tokens to address(0).\n */\ncontract ERC721A is\n  Context,\n  ERC165,\n  IERC721,\n  IERC721Metadata,\n  IERC721Enumerable\n{\n  using Address for address;\n  using Strings for uint256;\n\n  struct TokenOwnership {\n    address addr;\n    uint64 startTimestamp;\n  }\n\n  struct AddressData {\n    uint128 balance;\n    uint128 numberMinted;\n  }\n\n  uint256 private currentIndex = 0;\n\n  uint256 internal immutable collectionSize;\n  uint256 internal immutable maxBatchSize;\n\n  // Token name\n  string private _name;\n\n  // Token symbol\n  string private _symbol;\n\n  // Mapping from token ID to ownership details\n  // An empty struct value does not necessarily mean the token is unowned. See ownershipOf implementation for details.\n  mapping(uint256 => TokenOwnership) private _ownerships;\n\n  // Mapping owner address to address data\n  mapping(address => AddressData) private _addressData;\n\n  // Mapping from token ID to approved address\n  mapping(uint256 => address) private _tokenApprovals;\n\n  // Mapping from owner to operator approvals\n  mapping(address => mapping(address => bool)) private _operatorApprovals;\n\n  /**\n   * @dev\n   * `maxBatchSize` refers to how much a minter can mint at a time.\n   * `collectionSize_` refers to how many tokens are in the collection.\n   */\n  constructor(\n    string memory name_,\n    string memory symbol_,\n    uint256 maxBatchSize_,\n    uint256 collectionSize_\n  ) {\n    require(\n      collectionSize_ > 0,\n      \"ERC721A: collection must have a nonzero supply\"\n    );\n    require(maxBatchSize_ > 0, \"ERC721A: max batch size must be nonzero\");\n    _name = name_;\n    _symbol = symbol_;\n    maxBatchSize = maxBatchSize_;\n    collectionSize = collectionSize_;\n  }\n\n  /**\n   * @dev See {IERC721Enumerable-totalSupply}.\n   */\n  function totalSupply() public view override returns (uint256) {\n    return currentIndex;\n  }\n\n  /**\n   * @dev See {IERC721Enumerable-tokenByIndex}.\n   */\n  function tokenByIndex(uint256 index) public view override returns (uint256) {\n    require(index < totalSupply(), \"ERC721A: global index out of bounds\");\n    return index;\n  }\n\n  /**\n   * @dev See {IERC721Enumerable-tokenOfOwnerByIndex}.\n   * This read function is O(collectionSize). If calling from a separate contract, be sure to test gas first.\n   * It may also degrade with extremely large collection sizes (e.g >> 10000), test for your use case.\n   */\n  function tokenOfOwnerByIndex(address owner, uint256 index)\n    public\n    view\n    override\n    returns (uint256)\n  {\n    require(index < balanceOf(owner), \"ERC721A: owner index out of bounds\");\n    uint256 numMintedSoFar = totalSupply();\n    uint256 tokenIdsIdx = 0;\n    address currOwnershipAddr = address(0);\n    for (uint256 i = 0; i < numMintedSoFar; i++) {\n      TokenOwnership memory ownership = _ownerships[i];\n      if (ownership.addr != address(0)) {\n        currOwnershipAddr = ownership.addr;\n      }\n      if (currOwnershipAddr == owner) {\n        if (tokenIdsIdx == index) {\n          return i;\n        }\n        tokenIdsIdx++;\n      }\n    }\n    revert(\"ERC721A: unable to get token of owner by index\");\n  }\n\n  /**\n   * @dev See {IERC165-supportsInterface}.\n   */\n  function supportsInterface(bytes4 interfaceId)\n    public\n    view\n    virtual\n    override(ERC165, IERC165)\n    returns (bool)\n  {\n    return\n      interfaceId == type(IERC721).interfaceId ||\n      interfaceId == type(IERC721Metadata).interfaceId ||\n      interfaceId == type(IERC721Enumerable).interfaceId ||\n      super.supportsInterface(interfaceId);\n  }\n\n  /**\n   * @dev See {IERC721-balanceOf}.\n   */\n  function balanceOf(address owner) public view override returns (uint256) {\n    require(owner != address(0), \"ERC721A: balance query for the zero address\");\n    return uint256(_addressData[owner].balance);\n  }\n\n  function _numberMinted(address owner) internal view returns (uint256) {\n    require(\n      owner != address(0),\n      \"ERC721A: number minted query for the zero address\"\n    );\n    return uint256(_addressData[owner].numberMinted);\n  }\n\n  function ownershipOf(uint256 tokenId)\n    internal\n    view\n    returns (TokenOwnership memory)\n  {\n    require(_exists(tokenId), \"ERC721A: owner query for nonexistent token\");\n\n    uint256 lowestTokenToCheck;\n    if (tokenId >= maxBatchSize) {\n      lowestTokenToCheck = tokenId - maxBatchSize + 1;\n    }\n\n    for (uint256 curr = tokenId; curr >= lowestTokenToCheck; curr--) {\n      TokenOwnership memory ownership = _ownerships[curr];\n      if (ownership.addr != address(0)) {\n        return ownership;\n      }\n    }\n\n    revert(\"ERC721A: unable to determine the owner of token\");\n  }\n\n  /**\n   * @dev See {IERC721-ownerOf}.\n   */\n  function ownerOf(uint256 tokenId) public view override returns (address) {\n    return ownershipOf(tokenId).addr;\n  }\n\n  /**\n   * @dev See {IERC721Metadata-name}.\n   */\n  function name() public view virtual override returns (string memory) {\n    return _name;\n  }\n\n  /**\n   * @dev See {IERC721Metadata-symbol}.\n   */\n  function symbol() public view virtual override returns (string memory) {\n    return _symbol;\n  }\n\n  /**\n   * @dev See {IERC721Metadata-tokenURI}.\n   */\n  function tokenURI(uint256 tokenId)\n    public\n    view\n    virtual\n    override\n    returns (string memory)\n  {\n    require(\n      _exists(tokenId),\n      \"ERC721Metadata: URI query for nonexistent token\"\n    );\n\n    string memory baseURI = _baseURI();\n    return\n      bytes(baseURI).length > 0\n        ? string(abi.encodePacked(baseURI, tokenId.toString(), \".json\"))\n        : \"\";\n  }\n\n  /**\n   * @dev Base URI for computing {tokenURI}. If set, the resulting URI for each\n   * token will be the concatenation of the `baseURI` and the `tokenId`. Empty\n   * by default, can be overriden in child contracts.\n   */\n  function _baseURI() internal view virtual returns (string memory) {\n    return \"\";\n  }\n\n  /**\n   * @dev See {IERC721-approve}.\n   */\n  function approve(address to, uint256 tokenId) public override {\n    address owner = ERC721A.ownerOf(tokenId);\n    require(to != owner, \"ERC721A: approval to current owner\");\n\n    require(\n      _msgSender() == owner || isApprovedForAll(owner, _msgSender()),\n      \"ERC721A: approve caller is not owner nor approved for all\"\n    );\n\n    _approve(to, tokenId, owner);\n  }\n\n  /**\n   * @dev See {IERC721-getApproved}.\n   */\n  function getApproved(uint256 tokenId) public view override returns (address) {\n    require(_exists(tokenId), \"ERC721A: approved query for nonexistent token\");\n\n    return _tokenApprovals[tokenId];\n  }\n\n  /**\n   * @dev See {IERC721-setApprovalForAll}.\n   */\n  function setApprovalForAll(address operator, bool approved) public override {\n    require(operator != _msgSender(), \"ERC721A: approve to caller\");\n\n    _operatorApprovals[_msgSender()][operator] = approved;\n    emit ApprovalForAll(_msgSender(), operator, approved);\n  }\n\n  /**\n   * @dev See {IERC721-isApprovedForAll}.\n   */\n  function isApprovedForAll(address owner, address operator)\n    public\n    view\n    virtual\n    override\n    returns (bool)\n  {\n    return _operatorApprovals[owner][operator];\n  }\n\n  /**\n   * @dev See {IERC721-transferFrom}.\n   */\n  function transferFrom(\n    address from,\n    address to,\n    uint256 tokenId\n  ) public override {\n    _transfer(from, to, tokenId);\n  }\n\n  /**\n   * @dev See {IERC721-safeTransferFrom}.\n   */\n  function safeTransferFrom(\n    address from,\n    address to,\n    uint256 tokenId\n  ) public override {\n    safeTransferFrom(from, to, tokenId, \"\");\n  }\n\n  /**\n   * @dev See {IERC721-safeTransferFrom}.\n   */\n  function safeTransferFrom(\n    address from,\n    address to,\n    uint256 tokenId,\n    bytes memory _data\n  ) public override {\n    _transfer(from, to, tokenId);\n    require(\n      _checkOnERC721Received(from, to, tokenId, _data),\n      \"ERC721A: transfer to non ERC721Receiver implementer\"\n    );\n  }\n\n  /**\n   * @dev Returns whether `tokenId` exists.\n   *\n   * Tokens can be managed by their owner or approved accounts via {approve} or {setApprovalForAll}.\n   *\n   * Tokens start existing when they are minted (`_mint`),\n   */\n  function _exists(uint256 tokenId) internal view returns (bool) {\n    return tokenId < currentIndex;\n  }\n\n  function _safeMint(address to, uint256 quantity) internal {\n    _safeMint(to, quantity, \"\");\n  }\n\n  /**\n   * @dev Mints `quantity` tokens and transfers them to `to`.\n   *\n   * Requirements:\n   *\n   * - there must be `quantity` tokens remaining unminted in the total collection.\n   * - `to` cannot be the zero address.\n   * - `quantity` cannot be larger than the max batch size.\n   *\n   * Emits a {Transfer} event.\n   */\n  function _safeMint(\n    address to,\n    uint256 quantity,\n    bytes memory _data\n  ) internal {\n    uint256 startTokenId = currentIndex;\n    require(to != address(0), \"ERC721A: mint to the zero address\");\n    // We know if the first token in the batch doesn't exist, the other ones don't as well, because of serial ordering.\n    require(!_exists(startTokenId), \"ERC721A: token already minted\");\n    require(quantity <= maxBatchSize, \"ERC721A: quantity to mint too high\");\n\n    _beforeTokenTransfers(address(0), to, startTokenId, quantity);\n\n    AddressData memory addressData = _addressData[to];\n    _addressData[to] = AddressData(\n      addressData.balance + uint128(quantity),\n      addressData.numberMinted + uint128(quantity)\n    );\n    _ownerships[startTokenId] = TokenOwnership(to, uint64(block.timestamp));\n\n    uint256 updatedIndex = startTokenId;\n\n    for (uint256 i = 0; i < quantity; i++) {\n      emit Transfer(address(0), to, updatedIndex);\n      require(\n        _checkOnERC721Received(address(0), to, updatedIndex, _data),\n        \"ERC721A: transfer to non ERC721Receiver implementer\"\n      );\n      updatedIndex++;\n    }\n\n    currentIndex = updatedIndex;\n    _afterTokenTransfers(address(0), to, startTokenId, quantity);\n  }\n\n  /**\n   * @dev Transfers `tokenId` from `from` to `to`.\n   *\n   * Requirements:\n   *\n   * - `to` cannot be the zero address.\n   * - `tokenId` token must be owned by `from`.\n   *\n   * Emits a {Transfer} event.\n   */\n  function _transfer(\n    address from,\n    address to,\n    uint256 tokenId\n  ) private {\n    TokenOwnership memory prevOwnership = ownershipOf(tokenId);\n\n    bool isApprovedOrOwner = (_msgSender() == prevOwnership.addr ||\n      getApproved(tokenId) == _msgSender() ||\n      isApprovedForAll(prevOwnership.addr, _msgSender()));\n\n    require(\n      isApprovedOrOwner,\n      \"ERC721A: transfer caller is not owner nor approved\"\n    );\n\n    require(\n      prevOwnership.addr == from,\n      \"ERC721A: transfer from incorrect owner\"\n    );\n    require(to != address(0), \"ERC721A: transfer to the zero address\");\n\n    _beforeTokenTransfers(from, to, tokenId, 1);\n\n    // Clear approvals from the previous owner\n    _approve(address(0), tokenId, prevOwnership.addr);\n\n    _addressData[from].balance -= 1;\n    _addressData[to].balance += 1;\n    _ownerships[tokenId] = TokenOwnership(to, uint64(block.timestamp));\n\n    // If the ownership slot of tokenId+1 is not explicitly set, that means the transfer initiator owns it.\n    // Set the slot of tokenId+1 explicitly in storage to maintain correctness for ownerOf(tokenId+1) calls.\n    uint256 nextTokenId = tokenId + 1;\n    if (_ownerships[nextTokenId].addr == address(0)) {\n      if (_exists(nextTokenId)) {\n        _ownerships[nextTokenId] = TokenOwnership(\n          prevOwnership.addr,\n          prevOwnership.startTimestamp\n        );\n      }\n    }\n\n    emit Transfer(from, to, tokenId);\n    _afterTokenTransfers(from, to, tokenId, 1);\n  }\n\n  /**\n   * @dev Approve `to` to operate on `tokenId`\n   *\n   * Emits a {Approval} event.\n   */\n  function _approve(\n    address to,\n    uint256 tokenId,\n    address owner\n  ) private {\n    _tokenApprovals[tokenId] = to;\n    emit Approval(owner, to, tokenId);\n  }\n\n  uint256 public nextOwnerToExplicitlySet = 0;\n\n  /**\n   * @dev Explicitly set `owners` to eliminate loops in future calls of ownerOf().\n   */\n  function _setOwnersExplicit(uint256 quantity) internal {\n    uint256 oldNextOwnerToSet = nextOwnerToExplicitlySet;\n    require(quantity > 0, \"quantity must be nonzero\");\n    uint256 endIndex = oldNextOwnerToSet + quantity - 1;\n    if (endIndex > collectionSize - 1) {\n      endIndex = collectionSize - 1;\n    }\n    // We know if the last one in the group exists, all in the group exist, due to serial ordering.\n    require(_exists(endIndex), \"not enough minted yet for this cleanup\");\n    for (uint256 i = oldNextOwnerToSet; i <= endIndex; i++) {\n      if (_ownerships[i].addr == address(0)) {\n        TokenOwnership memory ownership = ownershipOf(i);\n        _ownerships[i] = TokenOwnership(\n          ownership.addr,\n          ownership.startTimestamp\n        );\n      }\n    }\n    nextOwnerToExplicitlySet = endIndex + 1;\n  }\n\n  /**\n   * @dev Internal function to invoke {IERC721Receiver-onERC721Received} on a target address.\n   * The call is not executed if the target address is not a contract.\n   *\n   * @param from address representing the previous owner of the given token ID\n   * @param to target address that will receive the tokens\n   * @param tokenId uint256 ID of the token to be transferred\n   * @param _data bytes optional data to send along with the call\n   * @return bool whether the call correctly returned the expected magic value\n   */\n  function _checkOnERC721Received(\n    address from,\n    address to,\n    uint256 tokenId,\n    bytes memory _data\n  ) private returns (bool) {\n    if (to.isContract()) {\n      try\n        IERC721Receiver(to).onERC721Received(_msgSender(), from, tokenId, _data)\n      returns (bytes4 retval) {\n        return retval == IERC721Receiver(to).onERC721Received.selector;\n      } catch (bytes memory reason) {\n        if (reason.length == 0) {\n          revert(\"ERC721A: transfer to non ERC721Receiver implementer\");\n        } else {\n          assembly {\n            revert(add(32, reason), mload(reason))\n          }\n        }\n      }\n    } else {\n      return true;\n    }\n  }\n\n  /**\n   * @dev Hook that is called before a set of serially-ordered token ids are about to be transferred. This includes minting.\n   *\n   * startTokenId - the first token id to be transferred\n   * quantity - the amount to be transferred\n   *\n   * Calling conditions:\n   *\n   * - When `from` and `to` are both non-zero, ``from``'s `tokenId` will be\n   * transferred to `to`.\n   * - When `from` is zero, `tokenId` will be minted for `to`.\n   */\n  function _beforeTokenTransfers(\n    address from,\n    address to,\n    uint256 startTokenId,\n    uint256 quantity\n  ) internal virtual {}\n\n  /**\n   * @dev Hook that is called after a set of serially-ordered token ids have been transferred. This includes\n   * minting.\n   *\n   * startTokenId - the first token id to be transferred\n   * quantity - the amount to be transferred\n   *\n   * Calling conditions:\n   *\n   * - when `from` and `to` are both non-zero.\n   * - `from` and `to` are never both zero.\n   */\n  function _afterTokenTransfers(\n    address from,\n    address to,\n    uint256 startTokenId,\n    uint256 quantity\n  ) internal virtual {}\n}",
  "sourcePath": "/Users/richard/Projects/richapesclub/contracts/ERC721A.sol",
  "compiler": {
    "name": "solc",
    "version": "0.8.11+commit.d7f03943.Emscripten.clang"
  },
  "schemaVersion": "3.4.4",
  "updatedAt": "2022-02-20T18:48:58.805Z",
  "devdoc": {
    "details": "Implementation of https://eips.ethereum.org/EIPS/eip-721[ERC721] Non-Fungible Token Standard, including the Metadata and Enumerable extension. Built to optimize for lower gas during batch mints. Assumes serials are sequentially minted starting at 0 (e.g. 0, 1, 2, 3..). Assumes the number of issuable tokens (collection size) is capped and fits in a uint128. Does not support burning tokens to address(0).",
    "kind": "dev",
    "methods": {
      "approve(address,uint256)": {
        "details": "See {IERC721-approve}."
      },
      "balanceOf(address)": {
        "details": "See {IERC721-balanceOf}."
      },
      "constructor": {
        "details": "`maxBatchSize` refers to how much a minter can mint at a time. `collectionSize_` refers to how many tokens are in the collection."
      },
      "getApproved(uint256)": {
        "details": "See {IERC721-getApproved}."
      },
      "isApprovedForAll(address,address)": {
        "details": "See {IERC721-isApprovedForAll}."
      },
      "name()": {
        "details": "See {IERC721Metadata-name}."
      },
      "ownerOf(uint256)": {
        "details": "See {IERC721-ownerOf}."
      },
      "safeTransferFrom(address,address,uint256)": {
        "details": "See {IERC721-safeTransferFrom}."
      },
      "safeTransferFrom(address,address,uint256,bytes)": {
        "details": "See {IERC721-safeTransferFrom}."
      },
      "setApprovalForAll(address,bool)": {
        "details": "See {IERC721-setApprovalForAll}."
      },
      "supportsInterface(bytes4)": {
        "details": "See {IERC165-supportsInterface}."
      },
      "symbol()": {
        "details": "See {IERC721Metadata-symbol}."
      },
      "tokenByIndex(uint256)": {
        "details": "See {IERC721Enumerable-tokenByIndex}."
      },
      "tokenOfOwnerByIndex(address,uint256)": {
        "details": "See {IERC721Enumerable-tokenOfOwnerByIndex}. This read function is O(collectionSize). If calling from a separate contract, be sure to test gas first. It may also degrade with extremely large collection sizes (e.g >> 10000), test for your use case."
      },
      "tokenURI(uint256)": {
        "details": "See {IERC721Metadata-tokenURI}."
      },
      "totalSupply()": {
        "details": "See {IERC721Enumerable-totalSupply}."
      },
      "transferFrom(address,address,uint256)": {
        "details": "See {IERC721-transferFrom}."
      }
    },
    "version": 1
  },
  "userdoc": {
    "kind": "user",
    "methods": {},
    "version": 1
  }
}