{
  "contractName": "RichApesClub",
  "abi": [
    {
      "inputs": [],
      "stateMutability": "nonpayable",
      "type": "constructor"
    },
    {
      "anonymous": false,
      "inputs": [
        {
          "indexed": true,
          "internalType": "address",
          "name": "owner",
          "type": "address"
        },
        {
          "indexed": true,
          "internalType": "address",
          "name": "approved",
          "type": "address"
        },
        {
          "indexed": true,
          "internalType": "uint256",
          "name": "tokenId",
          "type": "uint256"
        }
      ],
      "name": "Approval",
      "type": "event"
    },
    {
      "anonymous": false,
      "inputs": [
        {
          "indexed": true,
          "internalType": "address",
          "name": "owner",
          "type": "address"
        },
        {
          "indexed": true,
          "internalType": "address",
          "name": "operator",
          "type": "address"
        },
        {
          "indexed": false,
          "internalType": "bool",
          "name": "approved",
          "type": "bool"
        }
      ],
      "name": "ApprovalForAll",
      "type": "event"
    },
    {
      "anonymous": false,
      "inputs": [
        {
          "indexed": true,
          "internalType": "address",
          "name": "previousOwner",
          "type": "address"
        },
        {
          "indexed": true,
          "internalType": "address",
          "name": "newOwner",
          "type": "address"
        }
      ],
      "name": "OwnershipTransferred",
      "type": "event"
    },
    {
      "anonymous": false,
      "inputs": [
        {
          "indexed": true,
          "internalType": "address",
          "name": "from",
          "type": "address"
        },
        {
          "indexed": true,
          "internalType": "address",
          "name": "to",
          "type": "address"
        },
        {
          "indexed": true,
          "internalType": "uint256",
          "name": "tokenId",
          "type": "uint256"
        }
      ],
      "name": "Transfer",
      "type": "event"
    },
    {
      "inputs": [
        {
          "internalType": "address",
          "name": "",
          "type": "address"
        }
      ],
      "name": "_claimed",
      "outputs": [
        {
          "internalType": "bool",
          "name": "",
          "type": "bool"
        }
      ],
      "stateMutability": "view",
      "type": "function"
    },
    {
      "inputs": [
        {
          "internalType": "address",
          "name": "to",
          "type": "address"
        },
        {
          "internalType": "uint256",
          "name": "tokenId",
          "type": "uint256"
        }
      ],
      "name": "approve",
      "outputs": [],
      "stateMutability": "nonpayable",
      "type": "function"
    },
    {
      "inputs": [
        {
          "internalType": "address",
          "name": "owner",
          "type": "address"
        }
      ],
      "name": "balanceOf",
      "outputs": [
        {
          "internalType": "uint256",
          "name": "",
          "type": "uint256"
        }
      ],
      "stateMutability": "view",
      "type": "function"
    },
    {
      "inputs": [],
      "name": "baseURI",
      "outputs": [
        {
          "internalType": "string",
          "name": "",
          "type": "string"
        }
      ],
      "stateMutability": "view",
      "type": "function"
    },
    {
      "inputs": [],
      "name": "externalContractAddress",
      "outputs": [
        {
          "internalType": "address",
          "name": "",
          "type": "address"
        }
      ],
      "stateMutability": "view",
      "type": "function"
    },
    {
      "inputs": [
        {
          "internalType": "uint256",
          "name": "tokenId",
          "type": "uint256"
        }
      ],
      "name": "getApproved",
      "outputs": [
        {
          "internalType": "address",
          "name": "",
          "type": "address"
        }
      ],
      "stateMutability": "view",
      "type": "function"
    },
    {
      "inputs": [
        {
          "internalType": "address",
          "name": "owner",
          "type": "address"
        },
        {
          "internalType": "address",
          "name": "operator",
          "type": "address"
        }
      ],
      "name": "isApprovedForAll",
      "outputs": [
        {
          "internalType": "bool",
          "name": "",
          "type": "bool"
        }
      ],
      "stateMutability": "view",
      "type": "function"
    },
    {
      "inputs": [],
      "name": "limitPerWallet",
      "outputs": [
        {
          "internalType": "uint256",
          "name": "",
          "type": "uint256"
        }
      ],
      "stateMutability": "view",
      "type": "function"
    },
    {
      "inputs": [],
      "name": "maxMintSupply",
      "outputs": [
        {
          "internalType": "uint256",
          "name": "",
          "type": "uint256"
        }
      ],
      "stateMutability": "view",
      "type": "function"
    },
    {
      "inputs": [],
      "name": "name",
      "outputs": [
        {
          "internalType": "string",
          "name": "",
          "type": "string"
        }
      ],
      "stateMutability": "view",
      "type": "function"
    },
    {
      "inputs": [],
      "name": "nextOwnerToExplicitlySet",
      "outputs": [
        {
          "internalType": "uint256",
          "name": "",
          "type": "uint256"
        }
      ],
      "stateMutability": "view",
      "type": "function"
    },
    {
      "inputs": [],
      "name": "owner",
      "outputs": [
        {
          "internalType": "address",
          "name": "",
          "type": "address"
        }
      ],
      "stateMutability": "view",
      "type": "function"
    },
    {
      "inputs": [
        {
          "internalType": "uint256",
          "name": "tokenId",
          "type": "uint256"
        }
      ],
      "name": "ownerOf",
      "outputs": [
        {
          "internalType": "address",
          "name": "",
          "type": "address"
        }
      ],
      "stateMutability": "view",
      "type": "function"
    },
    {
      "inputs": [],
      "name": "publicState",
      "outputs": [
        {
          "internalType": "bool",
          "name": "",
          "type": "bool"
        }
      ],
      "stateMutability": "view",
      "type": "function"
    },
    {
      "inputs": [],
      "name": "renounceOwnership",
      "outputs": [],
      "stateMutability": "nonpayable",
      "type": "function"
    },
    {
      "inputs": [
        {
          "internalType": "address",
          "name": "from",
          "type": "address"
        },
        {
          "internalType": "address",
          "name": "to",
          "type": "address"
        },
        {
          "internalType": "uint256",
          "name": "tokenId",
          "type": "uint256"
        }
      ],
      "name": "safeTransferFrom",
      "outputs": [],
      "stateMutability": "nonpayable",
      "type": "function"
    },
    {
      "inputs": [
        {
          "internalType": "address",
          "name": "from",
          "type": "address"
        },
        {
          "internalType": "address",
          "name": "to",
          "type": "address"
        },
        {
          "internalType": "uint256",
          "name": "tokenId",
          "type": "uint256"
        },
        {
          "internalType": "bytes",
          "name": "_data",
          "type": "bytes"
        }
      ],
      "name": "safeTransferFrom",
      "outputs": [],
      "stateMutability": "nonpayable",
      "type": "function"
    },
    {
      "inputs": [
        {
          "internalType": "address",
          "name": "operator",
          "type": "address"
        },
        {
          "internalType": "bool",
          "name": "approved",
          "type": "bool"
        }
      ],
      "name": "setApprovalForAll",
      "outputs": [],
      "stateMutability": "nonpayable",
      "type": "function"
    },
    {
      "inputs": [
        {
          "internalType": "bytes4",
          "name": "interfaceId",
          "type": "bytes4"
        }
      ],
      "name": "supportsInterface",
      "outputs": [
        {
          "internalType": "bool",
          "name": "",
          "type": "bool"
        }
      ],
      "stateMutability": "view",
      "type": "function"
    },
    {
      "inputs": [],
      "name": "symbol",
      "outputs": [
        {
          "internalType": "string",
          "name": "",
          "type": "string"
        }
      ],
      "stateMutability": "view",
      "type": "function"
    },
    {
      "inputs": [
        {
          "internalType": "uint256",
          "name": "index",
          "type": "uint256"
        }
      ],
      "name": "tokenByIndex",
      "outputs": [
        {
          "internalType": "uint256",
          "name": "",
          "type": "uint256"
        }
      ],
      "stateMutability": "view",
      "type": "function"
    },
    {
      "inputs": [
        {
          "internalType": "address",
          "name": "owner",
          "type": "address"
        },
        {
          "internalType": "uint256",
          "name": "index",
          "type": "uint256"
        }
      ],
      "name": "tokenOfOwnerByIndex",
      "outputs": [
        {
          "internalType": "uint256",
          "name": "",
          "type": "uint256"
        }
      ],
      "stateMutability": "view",
      "type": "function"
    },
    {
      "inputs": [
        {
          "internalType": "uint256",
          "name": "tokenId",
          "type": "uint256"
        }
      ],
      "name": "tokenURI",
      "outputs": [
        {
          "internalType": "string",
          "name": "",
          "type": "string"
        }
      ],
      "stateMutability": "view",
      "type": "function"
    },
    {
      "inputs": [],
      "name": "totalSupply",
      "outputs": [
        {
          "internalType": "uint256",
          "name": "",
          "type": "uint256"
        }
      ],
      "stateMutability": "view",
      "type": "function"
    },
    {
      "inputs": [
        {
          "internalType": "address",
          "name": "from",
          "type": "address"
        },
        {
          "internalType": "address",
          "name": "to",
          "type": "address"
        },
        {
          "internalType": "uint256",
          "name": "tokenId",
          "type": "uint256"
        }
      ],
      "name": "transferFrom",
      "outputs": [],
      "stateMutability": "nonpayable",
      "type": "function"
    },
    {
      "inputs": [
        {
          "internalType": "address",
          "name": "newOwner",
          "type": "address"
        }
      ],
      "name": "transferOwnership",
      "outputs": [],
      "stateMutability": "nonpayable",
      "type": "function"
    },
    {
      "inputs": [],
      "name": "enable",
      "outputs": [],
      "stateMutability": "nonpayable",
      "type": "function"
    },
    {
      "inputs": [],
      "name": "disable",
      "outputs": [],
      "stateMutability": "nonpayable",
      "type": "function"
    },
    {
      "inputs": [
        {
          "internalType": "string",
          "name": "_tokenBaseURI",
          "type": "string"
        }
      ],
      "name": "setBaseURI",
      "outputs": [],
      "stateMutability": "nonpayable",
      "type": "function"
    },
    {
      "inputs": [
        {
          "internalType": "address",
          "name": "contractAddress",
          "type": "address"
        }
      ],
      "name": "setExternalContractAddress",
      "outputs": [],
      "stateMutability": "nonpayable",
      "type": "function"
    },
    {
      "inputs": [
        {
          "internalType": "address",
          "name": "owner",
          "type": "address"
        }
      ],
      "name": "externalBalanceOf",
      "outputs": [
        {
          "internalType": "uint256",
          "name": "",
          "type": "uint256"
        }
      ],
      "stateMutability": "view",
      "type": "function"
    },
    {
      "inputs": [
        {
          "internalType": "uint256",
          "name": "_amount",
          "type": "uint256"
        }
      ],
      "name": "mint",
      "outputs": [],
      "stateMutability": "payable",
      "type": "function"
    },
    {
      "inputs": [],
      "name": "claim",
      "outputs": [],
      "stateMutability": "payable",
      "type": "function"
    },
    {
      "inputs": [],
      "name": "withdraw",
      "outputs": [],
      "stateMutability": "nonpayable",
      "type": "function"
    }
  ],
  "bytecode": "0x60e060405260008080556007556701140bbd030c400060c05261115c6009556014600a55600b805460ff191690553480156200003a57600080fd5b506040518060400160405280600c81526020016b2934b1b420b832b9a1b63ab160a11b8152506040518060400160405280600381526020016252414360e81b815250600a5460095460008111620000ef5760405162461bcd60e51b815260206004820152602e60248201527f455243373231413a20636f6c6c656374696f6e206d757374206861766520612060448201526d6e6f6e7a65726f20737570706c7960901b60648201526084015b60405180910390fd5b60008211620001515760405162461bcd60e51b815260206004820152602760248201527f455243373231413a206d61782062617463682073697a65206d757374206265206044820152666e6f6e7a65726f60c81b6064820152608401620000e6565b83516200016690600190602087019062000261565b5082516200017c90600290602086019062000261565b5060a09190915260805250620001949050336200020f565b620001b373bd584ce590b7dcdbb93b11e095d9e1d5880b44d96200020f565b600d80546001600160a01b03191673e62a9ed27708698cfd5eb95310d0010953843b131790556040805160608101909152603680825262002810602083013980516200020891600c9160209091019062000261565b5062000344565b600880546001600160a01b038381166001600160a01b0319831681179093556040519116919082907f8be0079c531659141344cd1fd0a4f28419497f9722a3daafe3b4186f6b6457e090600090a35050565b8280546200026f9062000307565b90600052602060002090601f016020900481019282620002935760008555620002de565b82601f10620002ae57805160ff1916838001178555620002de565b82800160010185558215620002de579182015b82811115620002de578251825591602001919060010190620002c1565b50620002ec929150620002f0565b5090565b5b80821115620002ec5760008155600101620002f1565b600181811c908216806200031c57607f821691505b602082108114156200033e57634e487b7160e01b600052602260045260246000fd5b50919050565b60805160a05160c0516124916200037f6000396000610f4e015260008181611791015281816117bb0152611bd40152600050506124916000f3fe6080604052600436106101f95760003560e01c806370a082311161010d578063abfe7614116100a0578063c87b56dd1161006f578063c87b56dd1461054b578063d7224ba01461056b578063dd896a1c14610581578063e985e9c5146105b1578063f2fde38b146105fa57600080fd5b8063abfe7614146104db578063b88d4fde146104f5578063c27df47114610515578063c285e1071461053557600080fd5b8063a0712d68116100dc578063a0712d681461047d578063a22cb46514610490578063a3907d71146104b0578063a620ce5a146104c557600080fd5b806370a0823114610415578063715018a6146104355780638da5cb5b1461044a57806395d89b411461046857600080fd5b80632f745c59116101905780634f6ccce71161015f5780634f6ccce71461038057806355f804b3146103a05780636352211e146103c057806367e86f55146103e05780636c0360eb1461040057600080fd5b80632f745c59146103235780633ccfd60b1461034357806342842e0e146103585780634e71d92d1461037857600080fd5b806318160ddd116101cc57806318160ddd146102af5780632176d50a146102ce57806323b872dd146102ee5780632f2770db1461030e57600080fd5b806301ffc9a7146101fe57806306fdde0314610233578063081812fc14610255578063095ea7b31461028d575b600080fd5b34801561020a57600080fd5b5061021e610219366004611e98565b61061a565b60405190151581526020015b60405180910390f35b34801561023f57600080fd5b50610248610687565b60405161022a9190611f0d565b34801561026157600080fd5b50610275610270366004611f20565b610719565b6040516001600160a01b03909116815260200161022a565b34801561029957600080fd5b506102ad6102a8366004611f55565b6107a9565b005b3480156102bb57600080fd5b506000545b60405190815260200161022a565b3480156102da57600080fd5b50600d54610275906001600160a01b031681565b3480156102fa57600080fd5b506102ad610309366004611f7f565b6108c1565b34801561031a57600080fd5b506102ad6108cc565b34801561032f57600080fd5b506102c061033e366004611f55565b610902565b34801561034f57600080fd5b506102ad610a70565b34801561036457600080fd5b506102ad610373366004611f7f565b610ac9565b6102ad610ae4565b34801561038c57600080fd5b506102c061039b366004611f20565b610c4b565b3480156103ac57600080fd5b506102ad6103bb366004611fbb565b610cad565b3480156103cc57600080fd5b506102756103db366004611f20565b610ce3565b3480156103ec57600080fd5b506102c06103fb36600461202d565b610cf5565b34801561040c57600080fd5b50610248610d64565b34801561042157600080fd5b506102c061043036600461202d565b610df2565b34801561044157600080fd5b506102ad610e83565b34801561045657600080fd5b506008546001600160a01b0316610275565b34801561047457600080fd5b50610248610eb9565b6102ad61048b366004611f20565b610ec8565b34801561049c57600080fd5b506102ad6104ab366004612048565b611025565b3480156104bc57600080fd5b506102ad6110ea565b3480156104d157600080fd5b506102c0600a5481565b3480156104e757600080fd5b50600b5461021e9060ff1681565b34801561050157600080fd5b506102ad61051036600461209a565b611123565b34801561052157600080fd5b506102ad61053036600461202d565b61115c565b34801561054157600080fd5b506102c060095481565b34801561055757600080fd5b50610248610566366004611f20565b6111a8565b34801561057757600080fd5b506102c060075481565b34801561058d57600080fd5b5061021e61059c36600461202d565b600e6020526000908152604090205460ff1681565b3480156105bd57600080fd5b5061021e6105cc366004612176565b6001600160a01b03918216600090815260066020908152604080832093909416825291909152205460ff1690565b34801561060657600080fd5b506102ad61061536600461202d565b611275565b60006001600160e01b031982166380ac58cd60e01b148061064b57506001600160e01b03198216635b5e139f60e01b145b8061066657506001600160e01b0319821663780e9d6360e01b145b8061068157506301ffc9a760e01b6001600160e01b03198316145b92915050565b606060018054610696906121a9565b80601f01602080910402602001604051908101604052809291908181526020018280546106c2906121a9565b801561070f5780601f106106e45761010080835404028352916020019161070f565b820191906000526020600020905b8154815290600101906020018083116106f257829003601f168201915b5050505050905090565b6000610726826000541190565b61078d5760405162461bcd60e51b815260206004820152602d60248201527f455243373231413a20617070726f76656420717565727920666f72206e6f6e6560448201526c3c34b9ba32b73a103a37b5b2b760991b60648201526084015b60405180910390fd5b506000908152600560205260409020546001600160a01b031690565b60006107b482610ce3565b9050806001600160a01b0316836001600160a01b031614156108235760405162461bcd60e51b815260206004820152602260248201527f455243373231413a20617070726f76616c20746f2063757272656e74206f776e60448201526132b960f11b6064820152608401610784565b336001600160a01b038216148061083f575061083f81336105cc565b6108b15760405162461bcd60e51b815260206004820152603960248201527f455243373231413a20617070726f76652063616c6c6572206973206e6f74206f60448201527f776e6572206e6f7220617070726f76656420666f7220616c6c000000000000006064820152608401610784565b6108bc83838361130d565b505050565b6108bc838383611369565b6008546001600160a01b031633146108f65760405162461bcd60e51b8152600401610784906121e4565b600b805460ff19169055565b600061090d83610df2565b82106109665760405162461bcd60e51b815260206004820152602260248201527f455243373231413a206f776e657220696e646578206f7574206f6620626f756e604482015261647360f01b6064820152608401610784565b600080549080805b83811015610a10576000818152600360209081526040918290208251808401909352546001600160a01b038116808452600160a01b90910467ffffffffffffffff1691830191909152156109c157805192505b876001600160a01b0316836001600160a01b031614156109fd57868414156109ef5750935061068192505050565b836109f98161222f565b9450505b5080610a088161222f565b91505061096e565b5060405162461bcd60e51b815260206004820152602e60248201527f455243373231413a20756e61626c6520746f2067657420746f6b656e206f662060448201526d0deeedccae440c4f240d2dcc8caf60931b6064820152608401610784565b6008546001600160a01b03163314610a9a5760405162461bcd60e51b8152600401610784906121e4565b60405133904780156108fc02916000818181858888f19350505050158015610ac6573d6000803e3d6000fd5b50565b6108bc83838360405180602001604052806000815250611123565b600b5460ff16610b265760405162461bcd60e51b815260206004820152600d60248201526c1b5a5b9d08191a5cd8589b1959609a1b6044820152606401610784565b6000610b3133610cf5565b905060008111610b765760405162461bcd60e51b815260206004820152601060248201526f6e6f7468696e6720746f20636c61696d60801b6044820152606401610784565b336000908152600e602052604090205460ff1615610bc85760405162461bcd60e51b815260206004820152600f60248201526e185b1c9958591e4818db185a5b5959608a1b6044820152606401610784565b60095481610bd560005490565b610bdf919061224a565b1115610c235760405162461bcd60e51b81526020600482015260136024820152721b585e081cdd5c1c1b1e48195e18d959591959606a1b6044820152606401610784565b610c2e335b826116f1565b50336000908152600e60205260409020805460ff19166001179055565b600080548210610ca95760405162461bcd60e51b815260206004820152602360248201527f455243373231413a20676c6f62616c20696e646578206f7574206f6620626f756044820152626e647360e81b6064820152608401610784565b5090565b6008546001600160a01b03163314610cd75760405162461bcd60e51b8152600401610784906121e4565b6108bc600c8383611df2565b6000610cee8261170f565b5192915050565b600d546040516370a0823160e01b81526001600160a01b03838116600483015260009216906370a0823190602401602060405180830381865afa158015610d40573d6000803e3d6000fd5b505050506040513d601f19601f820116820180604052508101906106819190612262565b600c8054610d71906121a9565b80601f0160208091040260200160405190810160405280929190818152602001828054610d9d906121a9565b8015610dea5780601f10610dbf57610100808354040283529160200191610dea565b820191906000526020600020905b815481529060010190602001808311610dcd57829003601f168201915b505050505081565b60006001600160a01b038216610e5e5760405162461bcd60e51b815260206004820152602b60248201527f455243373231413a2062616c616e636520717565727920666f7220746865207a60448201526a65726f206164647265737360a81b6064820152608401610784565b506001600160a01b03166000908152600460205260409020546001600160801b031690565b6008546001600160a01b03163314610ead5760405162461bcd60e51b8152600401610784906121e4565b610eb760006118b9565b565b606060028054610696906121a9565b600b5460ff16610f0a5760405162461bcd60e51b815260206004820152600d60248201526c1b5a5b9d08191a5cd8589b1959609a1b6044820152606401610784565b60008111610f485760405162461bcd60e51b815260206004820152600b60248201526a1e995c9bc8185b5bdd5b9d60aa1b6044820152606401610784565b610f72817f000000000000000000000000000000000000000000000000000000000000000061227b565b341015610fc15760405162461bcd60e51b815260206004820152601960248201527f76616c75652073656e74206973206e6f7420636f7272656374000000000000006044820152606401610784565b60095481610fce60005490565b610fd8919061224a565b111561101c5760405162461bcd60e51b81526020600482015260136024820152721b585e081cdd5c1c1b1e48195e18d959591959606a1b6044820152606401610784565b610ac633610c28565b6001600160a01b03821633141561107e5760405162461bcd60e51b815260206004820152601a60248201527f455243373231413a20617070726f766520746f2063616c6c65720000000000006044820152606401610784565b3360008181526006602090815260408083206001600160a01b03871680855290835292819020805460ff191686151590811790915590519081529192917f17307eab39ab6107e8899845ad3d59bd9653f200f220920489ca2b5937696c31910160405180910390a35050565b6008546001600160a01b031633146111145760405162461bcd60e51b8152600401610784906121e4565b600b805460ff19166001179055565b61112e848484611369565b61113a8484848461190b565b6111565760405162461bcd60e51b81526004016107849061229a565b50505050565b6008546001600160a01b031633146111865760405162461bcd60e51b8152600401610784906121e4565b600d80546001600160a01b0319166001600160a01b0392909216919091179055565b60606111b5826000541190565b6112195760405162461bcd60e51b815260206004820152602f60248201527f4552433732314d657461646174613a2055524920717565727920666f72206e6f60448201526e3732bc34b9ba32b73a103a37b5b2b760891b6064820152608401610784565b6000611223611a0a565b90506000815111611243576040518060200160405280600081525061126e565b8061124d84611a19565b60405160200161125e9291906122ed565b6040516020818303038152906040525b9392505050565b6008546001600160a01b0316331461129f5760405162461bcd60e51b8152600401610784906121e4565b6001600160a01b0381166113045760405162461bcd60e51b815260206004820152602660248201527f4f776e61626c653a206e6577206f776e657220697320746865207a65726f206160448201526564647265737360d01b6064820152608401610784565b610ac6816118b9565b60008281526005602052604080822080546001600160a01b0319166001600160a01b0387811691821790925591518593918516917f8c5be1e5ebec7d5bd14f71427d1e84f3dd0314c0f7b2291e5b200ac8c7c3b92591a4505050565b60006113748261170f565b80519091506000906001600160a01b0316336001600160a01b031614806113ab5750336113a084610719565b6001600160a01b0316145b806113bd575081516113bd90336105cc565b9050806114275760405162461bcd60e51b815260206004820152603260248201527f455243373231413a207472616e736665722063616c6c6572206973206e6f74206044820152711bdddb995c881b9bdc88185c1c1c9bdd995960721b6064820152608401610784565b846001600160a01b031682600001516001600160a01b03161461149b5760405162461bcd60e51b815260206004820152602660248201527f455243373231413a207472616e736665722066726f6d20696e636f72726563746044820152651037bbb732b960d11b6064820152608401610784565b6001600160a01b0384166114ff5760405162461bcd60e51b815260206004820152602560248201527f455243373231413a207472616e7366657220746f20746865207a65726f206164604482015264647265737360d81b6064820152608401610784565b61150f600084846000015161130d565b6001600160a01b03851660009081526004602052604081208054600192906115419084906001600160801b031661232c565b82546101009290920a6001600160801b038181021990931691831602179091556001600160a01b0386166000908152600460205260408120805460019450909261158d91859116612354565b82546001600160801b039182166101009390930a9283029190920219909116179055506040805180820182526001600160a01b03808716825267ffffffffffffffff428116602080850191825260008981526003909152948520935184549151909216600160a01b026001600160e01b0319909116919092161717905561161584600161224a565b6000818152600360205260409020549091506001600160a01b03166116a75761163f816000541190565b156116a75760408051808201825284516001600160a01b03908116825260208087015167ffffffffffffffff9081168285019081526000878152600390935294909120925183549451909116600160a01b026001600160e01b03199094169116179190911790555b83856001600160a01b0316876001600160a01b03167fddf252ad1be2c89b69c2b068fc378daa952ba7f163c4a11628f55a4df523b3ef60405160405180910390a45b505050505050565b61170b828260405180602001604052806000815250611b17565b5050565b604080518082019091526000808252602082015261172e826000541190565b61178d5760405162461bcd60e51b815260206004820152602a60248201527f455243373231413a206f776e657220717565727920666f72206e6f6e657869736044820152693a32b73a103a37b5b2b760b11b6064820152608401610784565b60007f000000000000000000000000000000000000000000000000000000000000000083106117ee576117e07f00000000000000000000000000000000000000000000000000000000000000008461237f565b6117eb90600161224a565b90505b825b818110611858576000818152600360209081526040918290208251808401909352546001600160a01b038116808452600160a01b90910467ffffffffffffffff16918301919091521561184557949350505050565b508061185081612396565b9150506117f0565b5060405162461bcd60e51b815260206004820152602f60248201527f455243373231413a20756e61626c6520746f2064657465726d696e652074686560448201526e1037bbb732b91037b3103a37b5b2b760891b6064820152608401610784565b600880546001600160a01b038381166001600160a01b0319831681179093556040519116919082907f8be0079c531659141344cd1fd0a4f28419497f9722a3daafe3b4186f6b6457e090600090a35050565b60006001600160a01b0384163b156119fe57604051630a85bd0160e11b81526001600160a01b0385169063150b7a029061194f9033908990889088906004016123ad565b6020604051808303816000875af192505050801561198a575060408051601f3d908101601f19168201909252611987918101906123ea565b60015b6119e4573d8080156119b8576040519150601f19603f3d011682016040523d82523d6000602084013e6119bd565b606091505b5080516119dc5760405162461bcd60e51b81526004016107849061229a565b805181602001fd5b6001600160e01b031916630a85bd0160e11b149050611a02565b5060015b949350505050565b6060600c8054610696906121a9565b606081611a3d5750506040805180820190915260018152600360fc1b602082015290565b8160005b8115611a675780611a518161222f565b9150611a609050600a8361241d565b9150611a41565b60008167ffffffffffffffff811115611a8257611a82612084565b6040519080825280601f01601f191660200182016040528015611aac576020820181803683370190505b5090505b8415611a0257611ac160018361237f565b9150611ace600a86612431565b611ad990603061224a565b60f81b818381518110611aee57611aee612445565b60200101906001600160f81b031916908160001a905350611b10600a8661241d565b9450611ab0565b6000546001600160a01b038416611b7a5760405162461bcd60e51b815260206004820152602160248201527f455243373231413a206d696e7420746f20746865207a65726f206164647265736044820152607360f81b6064820152608401610784565b611b85816000541190565b15611bd25760405162461bcd60e51b815260206004820152601d60248201527f455243373231413a20746f6b656e20616c7265616479206d696e7465640000006044820152606401610784565b7f0000000000000000000000000000000000000000000000000000000000000000831115611c4d5760405162461bcd60e51b815260206004820152602260248201527f455243373231413a207175616e7469747920746f206d696e7420746f6f2068696044820152610ced60f31b6064820152608401610784565b6001600160a01b0384166000908152600460209081526040918290208251808401845290546001600160801b038082168352600160801b9091041691810191909152815180830190925280519091908190611ca9908790612354565b6001600160801b03168152602001858360200151611cc79190612354565b6001600160801b039081169091526001600160a01b0380881660008181526004602090815260408083208751978301518716600160801b0297909616969096179094558451808601865291825267ffffffffffffffff4281168386019081528883526003909552948120915182549451909516600160a01b026001600160e01b031990941694909216939093179190911790915582905b85811015611de75760405182906001600160a01b038916906000907fddf252ad1be2c89b69c2b068fc378daa952ba7f163c4a11628f55a4df523b3ef908290a4611dab600088848861190b565b611dc75760405162461bcd60e51b81526004016107849061229a565b81611dd18161222f565b9250508080611ddf9061222f565b915050611d5e565b5060008190556116e9565b828054611dfe906121a9565b90600052602060002090601f016020900481019282611e205760008555611e66565b82601f10611e395782800160ff19823516178555611e66565b82800160010185558215611e66579182015b82811115611e66578235825591602001919060010190611e4b565b50610ca99291505b80821115610ca95760008155600101611e6e565b6001600160e01b031981168114610ac657600080fd5b600060208284031215611eaa57600080fd5b813561126e81611e82565b60005b83811015611ed0578181015183820152602001611eb8565b838111156111565750506000910152565b60008151808452611ef9816020860160208601611eb5565b601f01601f19169290920160200192915050565b60208152600061126e6020830184611ee1565b600060208284031215611f3257600080fd5b5035919050565b80356001600160a01b0381168114611f5057600080fd5b919050565b60008060408385031215611f6857600080fd5b611f7183611f39565b946020939093013593505050565b600080600060608486031215611f9457600080fd5b611f9d84611f39565b9250611fab60208501611f39565b9150604084013590509250925092565b60008060208385031215611fce57600080fd5b823567ffffffffffffffff80821115611fe657600080fd5b818501915085601f830112611ffa57600080fd5b81358181111561200957600080fd5b86602082850101111561201b57600080fd5b60209290920196919550909350505050565b60006020828403121561203f57600080fd5b61126e82611f39565b6000806040838503121561205b57600080fd5b61206483611f39565b91506020830135801515811461207957600080fd5b809150509250929050565b634e487b7160e01b600052604160045260246000fd5b600080600080608085870312156120b057600080fd5b6120b985611f39565b93506120c760208601611f39565b925060408501359150606085013567ffffffffffffffff808211156120eb57600080fd5b818701915087601f8301126120ff57600080fd5b81358181111561211157612111612084565b604051601f8201601f19908116603f0116810190838211818310171561213957612139612084565b816040528281528a602084870101111561215257600080fd5b82602086016020830137600060208483010152809550505050505092959194509250565b6000806040838503121561218957600080fd5b61219283611f39565b91506121a060208401611f39565b90509250929050565b600181811c908216806121bd57607f821691505b602082108114156121de57634e487b7160e01b600052602260045260246000fd5b50919050565b6020808252818101527f4f776e61626c653a2063616c6c6572206973206e6f7420746865206f776e6572604082015260600190565b634e487b7160e01b600052601160045260246000fd5b600060001982141561224357612243612219565b5060010190565b6000821982111561225d5761225d612219565b500190565b60006020828403121561227457600080fd5b5051919050565b600081600019048311821515161561229557612295612219565b500290565b60208082526033908201527f455243373231413a207472616e7366657220746f206e6f6e204552433732315260408201527232b1b2b4bb32b91034b6b83632b6b2b73a32b960691b606082015260800190565b600083516122ff818460208801611eb5565b835190830190612313818360208801611eb5565b64173539b7b760d91b9101908152600501949350505050565b60006001600160801b038381169083168181101561234c5761234c612219565b039392505050565b60006001600160801b0380831681851680830382111561237657612376612219565b01949350505050565b60008282101561239157612391612219565b500390565b6000816123a5576123a5612219565b506000190190565b6001600160a01b03858116825284166020820152604081018390526080606082018190526000906123e090830184611ee1565b9695505050505050565b6000602082840312156123fc57600080fd5b815161126e81611e82565b634e487b7160e01b600052601260045260246000fd5b60008261242c5761242c612407565b500490565b60008261244057612440612407565b500690565b634e487b7160e01b600052603260045260246000fdfea26469706673582212201ca0b5c1c5704dd53decc036f61e9e8f6d7ec747cb6c9ef91c06879b87c393c564736f6c634300080b0033697066733a2f2f516d635a416176664c5455457859346955644e35684d7579576f364745555858785a326a466f32636270733479502f",
  "immutableReferences": {
    "460": [
      {
        "length": 32,
        "start": 6033
      },
      {
        "length": 32,
        "start": 6075
      },
      {
        "length": 32,
        "start": 7124
      }
    ],
    "1948": [
      {
        "length": 32,
        "start": 3918
      }
    ]
  },
  "source": "// SPDX-License-Identifier: MIT\npragma solidity 0.8.11;\n\nimport \"./ERC721A.sol\";\nimport \"./Ownable.sol\";\nimport \"./Counters.sol\";\n\ninterface IExternalContract {\n    function balanceOf(address owner) external view returns (uint256);\n}\n\ncontract RichApesClub is ERC721A, Ownable {\n    using Strings for uint256;\n    using Counters for Counters.Counter;\n\n    uint256 immutable price = 77700000000000000; //0.0777 ETH\n\n    uint256 public maxMintSupply = 4444;\n    uint256 public limitPerWallet = 20;\n\n    bool public publicState = false;\n\n    string public baseURI;\n\n    address public externalContractAddress;\n\n    mapping(address => bool) public _claimed;\n\n    constructor()\n        ERC721A(\"RichApesClub\", \"RAC\", limitPerWallet, maxMintSupply) {\n        _transferOwnership(0xBD584cE590B7dcdbB93b11e095d9E1D5880B44d9);\n        externalContractAddress = 0xe62a9Ed27708698cfD5Eb95310d0010953843B13;\n        baseURI = \"ipfs://QmcZAavfLTUExY4iUdN5hMuyWo6GEUXXxZ2jFo2cbps4yP/\";\n    }\n\n    function enable() public onlyOwner {\n        publicState = true;\n    }\n\n    function disable() public onlyOwner {\n        publicState = false;\n    }\n\n    function setBaseURI(string calldata _tokenBaseURI) external onlyOwner {\n        baseURI = _tokenBaseURI;\n    }\n\n    function setExternalContractAddress(address contractAddress) external onlyOwner {\n        externalContractAddress = contractAddress;\n    }\n\n    function externalBalanceOf(address owner) public view returns (uint256) {\n        return IExternalContract(externalContractAddress).balanceOf(owner);\n    }\n\n    function mint(uint256 _amount) external payable {\n        require(publicState, \"mint disabled\");\n        require(_amount > 0, \"zero amount\");\n        require(msg.value >= (price * _amount), \"value sent is not correct\");\n        require(totalSupply() + _amount <= maxMintSupply, \"max supply exceeded\");\n\n       _safeMint(_msgSender(), _amount);\n    }\n\n    function claim() external payable {\n        require(publicState, \"mint disabled\");\n\n        uint256 extBalance = externalBalanceOf(_msgSender());\n        require(extBalance > 0, \"nothing to claim\");\n        require(!_claimed[_msgSender()], \"already claimed\");\n        require(totalSupply() + extBalance <= maxMintSupply, \"max supply exceeded\");\n\n        _safeMint(_msgSender(), extBalance);\n        _claimed[_msgSender()] = true;\n    }\n\n    function withdraw() public onlyOwner {\n        payable(_msgSender()).transfer(address(this).balance);\n    }\n\n    function _baseURI() internal view override returns (string memory) {\n        return baseURI;\n    }\n}",
  "sourcePath": "/Users/richard/Projects/richapesclub/contracts/RichApesClub.sol",
  "compiler": {
    "name": "solc",
    "version": "0.8.11+commit.d7f03943.Emscripten.clang"
  },
  "schemaVersion": "3.4.4",
  "updatedAt": "2022-02-21T11:30:33.388Z",
  "devdoc": {
    "kind": "dev",
    "methods": {
      "approve(address,uint256)": {
        "details": "See {IERC721-approve}."
      },
      "balanceOf(address)": {
        "details": "See {IERC721-balanceOf}."
      },
      "getApproved(uint256)": {
        "details": "See {IERC721-getApproved}."
      },
      "isApprovedForAll(address,address)": {
        "details": "See {IERC721-isApprovedForAll}."
      },
      "name()": {
        "details": "See {IERC721Metadata-name}."
      },
      "owner()": {
        "details": "Returns the address of the current owner."
      },
      "ownerOf(uint256)": {
        "details": "See {IERC721-ownerOf}."
      },
      "renounceOwnership()": {
        "details": "Leaves the contract without owner. It will not be possible to call `onlyOwner` functions anymore. Can only be called by the current owner. NOTE: Renouncing ownership will leave the contract without an owner, thereby removing any functionality that is only available to the owner."
      },
      "safeTransferFrom(address,address,uint256)": {
        "details": "See {IERC721-safeTransferFrom}."
      },
      "safeTransferFrom(address,address,uint256,bytes)": {
        "details": "See {IERC721-safeTransferFrom}."
      },
      "setApprovalForAll(address,bool)": {
        "details": "See {IERC721-setApprovalForAll}."
      },
      "supportsInterface(bytes4)": {
        "details": "See {IERC165-supportsInterface}."
      },
      "symbol()": {
        "details": "See {IERC721Metadata-symbol}."
      },
      "tokenByIndex(uint256)": {
        "details": "See {IERC721Enumerable-tokenByIndex}."
      },
      "tokenOfOwnerByIndex(address,uint256)": {
        "details": "See {IERC721Enumerable-tokenOfOwnerByIndex}. This read function is O(collectionSize). If calling from a separate contract, be sure to test gas first. It may also degrade with extremely large collection sizes (e.g >> 10000), test for your use case."
      },
      "tokenURI(uint256)": {
        "details": "See {IERC721Metadata-tokenURI}."
      },
      "totalSupply()": {
        "details": "See {IERC721Enumerable-totalSupply}."
      },
      "transferFrom(address,address,uint256)": {
        "details": "See {IERC721-transferFrom}."
      },
      "transferOwnership(address)": {
        "details": "Transfers ownership of the contract to a new account (`newOwner`). Can only be called by the current owner."
      }
    },
    "version": 1
  },
  "userdoc": {
    "kind": "user",
    "methods": {},
    "version": 1
  }
}