{
  "contractName": "RichApesClub",
  "abi": [
    {
      "inputs": [],
      "stateMutability": "nonpayable",
      "type": "constructor"
    },
    {
      "anonymous": false,
      "inputs": [
        {
          "indexed": true,
          "internalType": "address",
          "name": "owner",
          "type": "address"
        },
        {
          "indexed": true,
          "internalType": "address",
          "name": "approved",
          "type": "address"
        },
        {
          "indexed": true,
          "internalType": "uint256",
          "name": "tokenId",
          "type": "uint256"
        }
      ],
      "name": "Approval",
      "type": "event"
    },
    {
      "anonymous": false,
      "inputs": [
        {
          "indexed": true,
          "internalType": "address",
          "name": "owner",
          "type": "address"
        },
        {
          "indexed": true,
          "internalType": "address",
          "name": "operator",
          "type": "address"
        },
        {
          "indexed": false,
          "internalType": "bool",
          "name": "approved",
          "type": "bool"
        }
      ],
      "name": "ApprovalForAll",
      "type": "event"
    },
    {
      "anonymous": false,
      "inputs": [
        {
          "indexed": true,
          "internalType": "address",
          "name": "previousOwner",
          "type": "address"
        },
        {
          "indexed": true,
          "internalType": "address",
          "name": "newOwner",
          "type": "address"
        }
      ],
      "name": "OwnershipTransferred",
      "type": "event"
    },
    {
      "anonymous": false,
      "inputs": [
        {
          "indexed": true,
          "internalType": "address",
          "name": "from",
          "type": "address"
        },
        {
          "indexed": true,
          "internalType": "address",
          "name": "to",
          "type": "address"
        },
        {
          "indexed": true,
          "internalType": "uint256",
          "name": "tokenId",
          "type": "uint256"
        }
      ],
      "name": "Transfer",
      "type": "event"
    },
    {
      "inputs": [
        {
          "internalType": "address",
          "name": "",
          "type": "address"
        }
      ],
      "name": "_claimed",
      "outputs": [
        {
          "internalType": "bool",
          "name": "",
          "type": "bool"
        }
      ],
      "stateMutability": "view",
      "type": "function"
    },
    {
      "inputs": [
        {
          "internalType": "address",
          "name": "to",
          "type": "address"
        },
        {
          "internalType": "uint256",
          "name": "tokenId",
          "type": "uint256"
        }
      ],
      "name": "approve",
      "outputs": [],
      "stateMutability": "nonpayable",
      "type": "function"
    },
    {
      "inputs": [
        {
          "internalType": "address",
          "name": "owner",
          "type": "address"
        }
      ],
      "name": "balanceOf",
      "outputs": [
        {
          "internalType": "uint256",
          "name": "",
          "type": "uint256"
        }
      ],
      "stateMutability": "view",
      "type": "function"
    },
    {
      "inputs": [],
      "name": "baseURI",
      "outputs": [
        {
          "internalType": "string",
          "name": "",
          "type": "string"
        }
      ],
      "stateMutability": "view",
      "type": "function"
    },
    {
      "inputs": [],
      "name": "externalContractAddress",
      "outputs": [
        {
          "internalType": "address",
          "name": "",
          "type": "address"
        }
      ],
      "stateMutability": "view",
      "type": "function"
    },
    {
      "inputs": [
        {
          "internalType": "uint256",
          "name": "tokenId",
          "type": "uint256"
        }
      ],
      "name": "getApproved",
      "outputs": [
        {
          "internalType": "address",
          "name": "",
          "type": "address"
        }
      ],
      "stateMutability": "view",
      "type": "function"
    },
    {
      "inputs": [
        {
          "internalType": "address",
          "name": "owner",
          "type": "address"
        },
        {
          "internalType": "address",
          "name": "operator",
          "type": "address"
        }
      ],
      "name": "isApprovedForAll",
      "outputs": [
        {
          "internalType": "bool",
          "name": "",
          "type": "bool"
        }
      ],
      "stateMutability": "view",
      "type": "function"
    },
    {
      "inputs": [],
      "name": "limitPerWallet",
      "outputs": [
        {
          "internalType": "uint256",
          "name": "",
          "type": "uint256"
        }
      ],
      "stateMutability": "view",
      "type": "function"
    },
    {
      "inputs": [],
      "name": "maxMintSupply",
      "outputs": [
        {
          "internalType": "uint256",
          "name": "",
          "type": "uint256"
        }
      ],
      "stateMutability": "view",
      "type": "function"
    },
    {
      "inputs": [],
      "name": "name",
      "outputs": [
        {
          "internalType": "string",
          "name": "",
          "type": "string"
        }
      ],
      "stateMutability": "view",
      "type": "function"
    },
    {
      "inputs": [],
      "name": "nextOwnerToExplicitlySet",
      "outputs": [
        {
          "internalType": "uint256",
          "name": "",
          "type": "uint256"
        }
      ],
      "stateMutability": "view",
      "type": "function"
    },
    {
      "inputs": [],
      "name": "owner",
      "outputs": [
        {
          "internalType": "address",
          "name": "",
          "type": "address"
        }
      ],
      "stateMutability": "view",
      "type": "function"
    },
    {
      "inputs": [
        {
          "internalType": "uint256",
          "name": "tokenId",
          "type": "uint256"
        }
      ],
      "name": "ownerOf",
      "outputs": [
        {
          "internalType": "address",
          "name": "",
          "type": "address"
        }
      ],
      "stateMutability": "view",
      "type": "function"
    },
    {
      "inputs": [],
      "name": "publicState",
      "outputs": [
        {
          "internalType": "bool",
          "name": "",
          "type": "bool"
        }
      ],
      "stateMutability": "view",
      "type": "function"
    },
    {
      "inputs": [],
      "name": "renounceOwnership",
      "outputs": [],
      "stateMutability": "nonpayable",
      "type": "function"
    },
    {
      "inputs": [
        {
          "internalType": "address",
          "name": "from",
          "type": "address"
        },
        {
          "internalType": "address",
          "name": "to",
          "type": "address"
        },
        {
          "internalType": "uint256",
          "name": "tokenId",
          "type": "uint256"
        }
      ],
      "name": "safeTransferFrom",
      "outputs": [],
      "stateMutability": "nonpayable",
      "type": "function"
    },
    {
      "inputs": [
        {
          "internalType": "address",
          "name": "from",
          "type": "address"
        },
        {
          "internalType": "address",
          "name": "to",
          "type": "address"
        },
        {
          "internalType": "uint256",
          "name": "tokenId",
          "type": "uint256"
        },
        {
          "internalType": "bytes",
          "name": "_data",
          "type": "bytes"
        }
      ],
      "name": "safeTransferFrom",
      "outputs": [],
      "stateMutability": "nonpayable",
      "type": "function"
    },
    {
      "inputs": [
        {
          "internalType": "address",
          "name": "operator",
          "type": "address"
        },
        {
          "internalType": "bool",
          "name": "approved",
          "type": "bool"
        }
      ],
      "name": "setApprovalForAll",
      "outputs": [],
      "stateMutability": "nonpayable",
      "type": "function"
    },
    {
      "inputs": [
        {
          "internalType": "bytes4",
          "name": "interfaceId",
          "type": "bytes4"
        }
      ],
      "name": "supportsInterface",
      "outputs": [
        {
          "internalType": "bool",
          "name": "",
          "type": "bool"
        }
      ],
      "stateMutability": "view",
      "type": "function"
    },
    {
      "inputs": [],
      "name": "symbol",
      "outputs": [
        {
          "internalType": "string",
          "name": "",
          "type": "string"
        }
      ],
      "stateMutability": "view",
      "type": "function"
    },
    {
      "inputs": [
        {
          "internalType": "uint256",
          "name": "index",
          "type": "uint256"
        }
      ],
      "name": "tokenByIndex",
      "outputs": [
        {
          "internalType": "uint256",
          "name": "",
          "type": "uint256"
        }
      ],
      "stateMutability": "view",
      "type": "function"
    },
    {
      "inputs": [
        {
          "internalType": "address",
          "name": "owner",
          "type": "address"
        },
        {
          "internalType": "uint256",
          "name": "index",
          "type": "uint256"
        }
      ],
      "name": "tokenOfOwnerByIndex",
      "outputs": [
        {
          "internalType": "uint256",
          "name": "",
          "type": "uint256"
        }
      ],
      "stateMutability": "view",
      "type": "function"
    },
    {
      "inputs": [
        {
          "internalType": "uint256",
          "name": "tokenId",
          "type": "uint256"
        }
      ],
      "name": "tokenURI",
      "outputs": [
        {
          "internalType": "string",
          "name": "",
          "type": "string"
        }
      ],
      "stateMutability": "view",
      "type": "function"
    },
    {
      "inputs": [],
      "name": "totalSupply",
      "outputs": [
        {
          "internalType": "uint256",
          "name": "",
          "type": "uint256"
        }
      ],
      "stateMutability": "view",
      "type": "function"
    },
    {
      "inputs": [
        {
          "internalType": "address",
          "name": "from",
          "type": "address"
        },
        {
          "internalType": "address",
          "name": "to",
          "type": "address"
        },
        {
          "internalType": "uint256",
          "name": "tokenId",
          "type": "uint256"
        }
      ],
      "name": "transferFrom",
      "outputs": [],
      "stateMutability": "nonpayable",
      "type": "function"
    },
    {
      "inputs": [
        {
          "internalType": "address",
          "name": "newOwner",
          "type": "address"
        }
      ],
      "name": "transferOwnership",
      "outputs": [],
      "stateMutability": "nonpayable",
      "type": "function"
    },
    {
      "inputs": [
        {
          "internalType": "address",
          "name": "contractAddress",
          "type": "address"
        }
      ],
      "name": "setExternalContractAddress",
      "outputs": [],
      "stateMutability": "nonpayable",
      "type": "function"
    },
    {
      "inputs": [
        {
          "internalType": "uint256",
          "name": "_amount",
          "type": "uint256"
        }
      ],
      "name": "newMint",
      "outputs": [],
      "stateMutability": "payable",
      "type": "function"
    },
    {
      "inputs": [],
      "name": "claim",
      "outputs": [],
      "stateMutability": "payable",
      "type": "function"
    },
    {
      "inputs": [
        {
          "internalType": "string",
          "name": "_tokenBaseURI",
          "type": "string"
        }
      ],
      "name": "setBaseURI",
      "outputs": [],
      "stateMutability": "nonpayable",
      "type": "function"
    },
    {
      "inputs": [],
      "name": "withdraw",
      "outputs": [],
      "stateMutability": "nonpayable",
      "type": "function"
    },
    {
      "inputs": [],
      "name": "enable",
      "outputs": [],
      "stateMutability": "nonpayable",
      "type": "function"
    },
    {
      "inputs": [],
      "name": "disable",
      "outputs": [],
      "stateMutability": "nonpayable",
      "type": "function"
    },
    {
      "inputs": [
        {
          "internalType": "uint256",
          "name": "_amount",
          "type": "uint256"
        }
      ],
      "name": "mint",
      "outputs": [],
      "stateMutability": "payable",
      "type": "function"
    }
  ],
  "bytecode": "0x60e06040526000808055600755612710600955601e600a55600c805460ff191660011790556701140bbd030c400060c0523480156200003d57600080fd5b506040518060400160405280600c81526020016b2934b1b420b832b9a1b63ab160a11b8152506040518060400160405280600381526020016252414360e81b815250600a5460095460008111620000f25760405162461bcd60e51b815260206004820152602e60248201527f455243373231413a20636f6c6c656374696f6e206d757374206861766520612060448201526d6e6f6e7a65726f20737570706c7960901b60648201526084015b60405180910390fd5b60008211620001545760405162461bcd60e51b815260206004820152602760248201527f455243373231413a206d61782062617463682073697a65206d757374206265206044820152666e6f6e7a65726f60c81b6064820152608401620000e9565b8351620001699060019060208701906200020e565b5082516200017f9060029060208601906200020e565b5060a0919091526080525062000197905033620001bc565b620001b6739530ecaaf1a01ad6034e5aa6a36b06a6b8a103bf620001bc565b620002f1565b600880546001600160a01b038381166001600160a01b0319831681179093556040519116919082907f8be0079c531659141344cd1fd0a4f28419497f9722a3daafe3b4186f6b6457e090600090a35050565b8280546200021c90620002b4565b90600052602060002090601f0160209004810192826200024057600085556200028b565b82601f106200025b57805160ff19168380011785556200028b565b828001600101855582156200028b579182015b828111156200028b5782518255916020019190600101906200026e565b50620002999291506200029d565b5090565b5b808211156200029957600081556001016200029e565b600181811c90821680620002c957607f821691505b60208210811415620002eb57634e487b7160e01b600052602260045260246000fd5b50919050565b60805160a05160c0516124d76200032c6000396000610f7f0152600081816117d7015281816118010152611c1a0152600050506124d76000f3fe6080604052600436106101f95760003560e01c8063715018a61161010d578063aecc5f0f116100a0578063c87b56dd1161006f578063c87b56dd1461052b578063d7224ba01461054b578063dd896a1c14610561578063e985e9c514610591578063f2fde38b146105da57600080fd5b8063aecc5f0f1461045d578063b88d4fde146104d5578063c27df471146104f5578063c285e1071461051557600080fd5b8063a22cb465116100dc578063a22cb46514610470578063a3907d7114610490578063a620ce5a146104a5578063abfe7614146104bb57600080fd5b8063715018a6146104155780638da5cb5b1461042a57806395d89b4114610448578063a0712d681461045d57600080fd5b80632f745c59116101905780634f6ccce71161015f5780634f6ccce71461038057806355f804b3146103a05780636352211e146103c05780636c0360eb146103e057806370a08231146103f557600080fd5b80632f745c59146103235780633ccfd60b1461034357806342842e0e146103585780634e71d92d1461037857600080fd5b806318160ddd116101cc57806318160ddd146102af5780632176d50a146102ce57806323b872dd146102ee5780632f2770db1461030e57600080fd5b806301ffc9a7146101fe57806306fdde0314610233578063081812fc14610255578063095ea7b31461028d575b600080fd5b34801561020a57600080fd5b5061021e610219366004611ede565b6105fa565b60405190151581526020015b60405180910390f35b34801561023f57600080fd5b50610248610667565b60405161022a9190611f53565b34801561026157600080fd5b50610275610270366004611f66565b6106f9565b6040516001600160a01b03909116815260200161022a565b34801561029957600080fd5b506102ad6102a8366004611f9b565b610789565b005b3480156102bb57600080fd5b506000545b60405190815260200161022a565b3480156102da57600080fd5b50600e54610275906001600160a01b031681565b3480156102fa57600080fd5b506102ad610309366004611fc5565b6108a1565b34801561031a57600080fd5b506102ad6108ac565b34801561032f57600080fd5b506102c061033e366004611f9b565b6108e2565b34801561034f57600080fd5b506102ad610a50565b34801561036457600080fd5b506102ad610373366004611fc5565b610aa9565b6102ad610ac4565b34801561038c57600080fd5b506102c061039b366004611f66565b610c42565b3480156103ac57600080fd5b506102ad6103bb366004612001565b610ca4565b3480156103cc57600080fd5b506102756103db366004611f66565b610cda565b3480156103ec57600080fd5b50610248610cec565b34801561040157600080fd5b506102c0610410366004612073565b610d7a565b34801561042157600080fd5b506102ad610e0b565b34801561043657600080fd5b506008546001600160a01b0316610275565b34801561045457600080fd5b50610248610e41565b6102ad61046b366004611f66565b610e50565b34801561047c57600080fd5b506102ad61048b36600461208e565b610ffc565b34801561049c57600080fd5b506102ad6110c1565b3480156104b157600080fd5b506102c0600a5481565b3480156104c757600080fd5b50600c5461021e9060ff1681565b3480156104e157600080fd5b506102ad6104f03660046120e0565b6110fa565b34801561050157600080fd5b506102ad610510366004612073565b611133565b34801561052157600080fd5b506102c060095481565b34801561053757600080fd5b50610248610546366004611f66565b61117f565b34801561055757600080fd5b506102c060075481565b34801561056d57600080fd5b5061021e61057c366004612073565b600d6020526000908152604090205460ff1681565b34801561059d57600080fd5b5061021e6105ac3660046121bc565b6001600160a01b03918216600090815260066020908152604080832093909416825291909152205460ff1690565b3480156105e657600080fd5b506102ad6105f5366004612073565b61124c565b60006001600160e01b031982166380ac58cd60e01b148061062b57506001600160e01b03198216635b5e139f60e01b145b8061064657506001600160e01b0319821663780e9d6360e01b145b8061066157506301ffc9a760e01b6001600160e01b03198316145b92915050565b606060018054610676906121ef565b80601f01602080910402602001604051908101604052809291908181526020018280546106a2906121ef565b80156106ef5780601f106106c4576101008083540402835291602001916106ef565b820191906000526020600020905b8154815290600101906020018083116106d257829003601f168201915b5050505050905090565b6000610706826000541190565b61076d5760405162461bcd60e51b815260206004820152602d60248201527f455243373231413a20617070726f76656420717565727920666f72206e6f6e6560448201526c3c34b9ba32b73a103a37b5b2b760991b60648201526084015b60405180910390fd5b506000908152600560205260409020546001600160a01b031690565b600061079482610cda565b9050806001600160a01b0316836001600160a01b031614156108035760405162461bcd60e51b815260206004820152602260248201527f455243373231413a20617070726f76616c20746f2063757272656e74206f776e60448201526132b960f11b6064820152608401610764565b336001600160a01b038216148061081f575061081f81336105ac565b6108915760405162461bcd60e51b815260206004820152603960248201527f455243373231413a20617070726f76652063616c6c6572206973206e6f74206f60448201527f776e6572206e6f7220617070726f76656420666f7220616c6c000000000000006064820152608401610764565b61089c8383836112e4565b505050565b61089c838383611340565b6008546001600160a01b031633146108d65760405162461bcd60e51b81526004016107649061222a565b600c805460ff19169055565b60006108ed83610d7a565b82106109465760405162461bcd60e51b815260206004820152602260248201527f455243373231413a206f776e657220696e646578206f7574206f6620626f756e604482015261647360f01b6064820152608401610764565b600080549080805b838110156109f0576000818152600360209081526040918290208251808401909352546001600160a01b038116808452600160a01b90910467ffffffffffffffff1691830191909152156109a157805192505b876001600160a01b0316836001600160a01b031614156109dd57868414156109cf5750935061066192505050565b836109d981612275565b9450505b50806109e881612275565b91505061094e565b5060405162461bcd60e51b815260206004820152602e60248201527f455243373231413a20756e61626c6520746f2067657420746f6b656e206f662060448201526d0deeedccae440c4f240d2dcc8caf60931b6064820152608401610764565b6008546001600160a01b03163314610a7a5760405162461bcd60e51b81526004016107649061222a565b60405133904780156108fc02916000818181858888f19350505050158015610aa6573d6000803e3d6000fd5b50565b61089c838383604051806020016040528060008152506110fa565b6000610acf336116c8565b11610b0f5760405162461bcd60e51b815260206004820152601060248201526f6e6f7468696e6720746f20636c61696d60801b6044820152606401610764565b336000908152600d602052604090205460ff1615610b615760405162461bcd60e51b815260206004820152600f60248201526e185b1c9958591e4818db185a5b5959608a1b6044820152606401610764565b600a54610b6d336116c8565b1115610bb75760405162461bcd60e51b815260206004820152601960248201527863616e2774206d696e7420736f206d75636820746f6b656e7360381b6044820152606401610764565b600954610bc3336116c8565b600054610bd09190612290565b1115610c145760405162461bcd60e51b81526020600482015260136024820152721b585e081cdd5c1c1b1e48195e18d959591959606a1b6044820152606401610764565b610c2633610c21336116c8565b611737565b336000908152600d60205260409020805460ff19166001179055565b600080548210610ca05760405162461bcd60e51b815260206004820152602360248201527f455243373231413a20676c6f62616c20696e646578206f7574206f6620626f756044820152626e647360e81b6064820152608401610764565b5090565b6008546001600160a01b03163314610cce5760405162461bcd60e51b81526004016107649061222a565b61089c600b8383611e38565b6000610ce582611755565b5192915050565b600b8054610cf9906121ef565b80601f0160208091040260200160405190810160405280929190818152602001828054610d25906121ef565b8015610d725780601f10610d4757610100808354040283529160200191610d72565b820191906000526020600020905b815481529060010190602001808311610d5557829003601f168201915b505050505081565b60006001600160a01b038216610de65760405162461bcd60e51b815260206004820152602b60248201527f455243373231413a2062616c616e636520717565727920666f7220746865207a60448201526a65726f206164647265737360a81b6064820152608401610764565b506001600160a01b03166000908152600460205260409020546001600160801b031690565b6008546001600160a01b03163314610e355760405162461bcd60e51b81526004016107649061222a565b610e3f60006118ff565b565b606060028054610676906121ef565b600c5460ff16610e925760405162461bcd60e51b815260206004820152600d60248201526c1b5a5b9d08191a5cd8589b1959609a1b6044820152606401610764565b60008111610ed05760405162461bcd60e51b815260206004820152600b60248201526a1e995c9bc8185b5bdd5b9d60aa1b6044820152606401610764565b600a54811115610f1e5760405162461bcd60e51b815260206004820152601960248201527863616e2774206d696e7420736f206d75636820746f6b656e7360381b6044820152606401610764565b60095481610f2b60005490565b610f359190612290565b1115610f795760405162461bcd60e51b81526020600482015260136024820152721b585e081cdd5c1c1b1e48195e18d959591959606a1b6044820152606401610764565b610fa3817f00000000000000000000000000000000000000000000000000000000000000006122a8565b341015610ff25760405162461bcd60e51b815260206004820152601960248201527f76616c75652073656e74206973206e6f7420636f7272656374000000000000006044820152606401610764565b610aa63382611737565b6001600160a01b0382163314156110555760405162461bcd60e51b815260206004820152601a60248201527f455243373231413a20617070726f766520746f2063616c6c65720000000000006044820152606401610764565b3360008181526006602090815260408083206001600160a01b03871680855290835292819020805460ff191686151590811790915590519081529192917f17307eab39ab6107e8899845ad3d59bd9653f200f220920489ca2b5937696c31910160405180910390a35050565b6008546001600160a01b031633146110eb5760405162461bcd60e51b81526004016107649061222a565b600c805460ff19166001179055565b611105848484611340565b61111184848484611951565b61112d5760405162461bcd60e51b8152600401610764906122c7565b50505050565b6008546001600160a01b0316331461115d5760405162461bcd60e51b81526004016107649061222a565b600e80546001600160a01b0319166001600160a01b0392909216919091179055565b606061118c826000541190565b6111f05760405162461bcd60e51b815260206004820152602f60248201527f4552433732314d657461646174613a2055524920717565727920666f72206e6f60448201526e3732bc34b9ba32b73a103a37b5b2b760891b6064820152608401610764565b60006111fa611a50565b9050600081511161121a5760405180602001604052806000815250611245565b8061122484611a5f565b60405160200161123592919061231a565b6040516020818303038152906040525b9392505050565b6008546001600160a01b031633146112765760405162461bcd60e51b81526004016107649061222a565b6001600160a01b0381166112db5760405162461bcd60e51b815260206004820152602660248201527f4f776e61626c653a206e6577206f776e657220697320746865207a65726f206160448201526564647265737360d01b6064820152608401610764565b610aa6816118ff565b60008281526005602052604080822080546001600160a01b0319166001600160a01b0387811691821790925591518593918516917f8c5be1e5ebec7d5bd14f71427d1e84f3dd0314c0f7b2291e5b200ac8c7c3b92591a4505050565b600061134b82611755565b80519091506000906001600160a01b0316336001600160a01b03161480611382575033611377846106f9565b6001600160a01b0316145b806113945750815161139490336105ac565b9050806113fe5760405162461bcd60e51b815260206004820152603260248201527f455243373231413a207472616e736665722063616c6c6572206973206e6f74206044820152711bdddb995c881b9bdc88185c1c1c9bdd995960721b6064820152608401610764565b846001600160a01b031682600001516001600160a01b0316146114725760405162461bcd60e51b815260206004820152602660248201527f455243373231413a207472616e736665722066726f6d20696e636f72726563746044820152651037bbb732b960d11b6064820152608401610764565b6001600160a01b0384166114d65760405162461bcd60e51b815260206004820152602560248201527f455243373231413a207472616e7366657220746f20746865207a65726f206164604482015264647265737360d81b6064820152608401610764565b6114e660008484600001516112e4565b6001600160a01b03851660009081526004602052604081208054600192906115189084906001600160801b0316612359565b82546101009290920a6001600160801b038181021990931691831602179091556001600160a01b0386166000908152600460205260408120805460019450909261156491859116612381565b82546001600160801b039182166101009390930a9283029190920219909116179055506040805180820182526001600160a01b03808716825267ffffffffffffffff428116602080850191825260008981526003909152948520935184549151909216600160a01b026001600160e01b031990911691909216171790556115ec846001612290565b6000818152600360205260409020549091506001600160a01b031661167e57611616816000541190565b1561167e5760408051808201825284516001600160a01b03908116825260208087015167ffffffffffffffff9081168285019081526000878152600390935294909120925183549451909116600160a01b026001600160e01b03199094169116179190911790555b83856001600160a01b0316876001600160a01b03167fddf252ad1be2c89b69c2b068fc378daa952ba7f163c4a11628f55a4df523b3ef60405160405180910390a45b505050505050565b600e546040516370a0823160e01b81526001600160a01b03838116600483015260009216906370a0823190602401602060405180830381865afa158015611713573d6000803e3d6000fd5b505050506040513d601f19601f8201168201806040525081019061066191906123ac565b611751828260405180602001604052806000815250611b5d565b5050565b6040805180820190915260008082526020820152611774826000541190565b6117d35760405162461bcd60e51b815260206004820152602a60248201527f455243373231413a206f776e657220717565727920666f72206e6f6e657869736044820152693a32b73a103a37b5b2b760b11b6064820152608401610764565b60007f00000000000000000000000000000000000000000000000000000000000000008310611834576118267f0000000000000000000000000000000000000000000000000000000000000000846123c5565b611831906001612290565b90505b825b81811061189e576000818152600360209081526040918290208251808401909352546001600160a01b038116808452600160a01b90910467ffffffffffffffff16918301919091521561188b57949350505050565b5080611896816123dc565b915050611836565b5060405162461bcd60e51b815260206004820152602f60248201527f455243373231413a20756e61626c6520746f2064657465726d696e652074686560448201526e1037bbb732b91037b3103a37b5b2b760891b6064820152608401610764565b600880546001600160a01b038381166001600160a01b0319831681179093556040519116919082907f8be0079c531659141344cd1fd0a4f28419497f9722a3daafe3b4186f6b6457e090600090a35050565b60006001600160a01b0384163b15611a4457604051630a85bd0160e11b81526001600160a01b0385169063150b7a02906119959033908990889088906004016123f3565b6020604051808303816000875af19250505080156119d0575060408051601f3d908101601f191682019092526119cd91810190612430565b60015b611a2a573d8080156119fe576040519150601f19603f3d011682016040523d82523d6000602084013e611a03565b606091505b508051611a225760405162461bcd60e51b8152600401610764906122c7565b805181602001fd5b6001600160e01b031916630a85bd0160e11b149050611a48565b5060015b949350505050565b6060600b8054610676906121ef565b606081611a835750506040805180820190915260018152600360fc1b602082015290565b8160005b8115611aad5780611a9781612275565b9150611aa69050600a83612463565b9150611a87565b60008167ffffffffffffffff811115611ac857611ac86120ca565b6040519080825280601f01601f191660200182016040528015611af2576020820181803683370190505b5090505b8415611a4857611b076001836123c5565b9150611b14600a86612477565b611b1f906030612290565b60f81b818381518110611b3457611b3461248b565b60200101906001600160f81b031916908160001a905350611b56600a86612463565b9450611af6565b6000546001600160a01b038416611bc05760405162461bcd60e51b815260206004820152602160248201527f455243373231413a206d696e7420746f20746865207a65726f206164647265736044820152607360f81b6064820152608401610764565b611bcb816000541190565b15611c185760405162461bcd60e51b815260206004820152601d60248201527f455243373231413a20746f6b656e20616c7265616479206d696e7465640000006044820152606401610764565b7f0000000000000000000000000000000000000000000000000000000000000000831115611c935760405162461bcd60e51b815260206004820152602260248201527f455243373231413a207175616e7469747920746f206d696e7420746f6f2068696044820152610ced60f31b6064820152608401610764565b6001600160a01b0384166000908152600460209081526040918290208251808401845290546001600160801b038082168352600160801b9091041691810191909152815180830190925280519091908190611cef908790612381565b6001600160801b03168152602001858360200151611d0d9190612381565b6001600160801b039081169091526001600160a01b0380881660008181526004602090815260408083208751978301518716600160801b0297909616969096179094558451808601865291825267ffffffffffffffff4281168386019081528883526003909552948120915182549451909516600160a01b026001600160e01b031990941694909216939093179190911790915582905b85811015611e2d5760405182906001600160a01b038916906000907fddf252ad1be2c89b69c2b068fc378daa952ba7f163c4a11628f55a4df523b3ef908290a4611df16000888488611951565b611e0d5760405162461bcd60e51b8152600401610764906122c7565b81611e1781612275565b9250508080611e2590612275565b915050611da4565b5060008190556116c0565b828054611e44906121ef565b90600052602060002090601f016020900481019282611e665760008555611eac565b82601f10611e7f5782800160ff19823516178555611eac565b82800160010185558215611eac579182015b82811115611eac578235825591602001919060010190611e91565b50610ca09291505b80821115610ca05760008155600101611eb4565b6001600160e01b031981168114610aa657600080fd5b600060208284031215611ef057600080fd5b813561124581611ec8565b60005b83811015611f16578181015183820152602001611efe565b8381111561112d5750506000910152565b60008151808452611f3f816020860160208601611efb565b601f01601f19169290920160200192915050565b6020815260006112456020830184611f27565b600060208284031215611f7857600080fd5b5035919050565b80356001600160a01b0381168114611f9657600080fd5b919050565b60008060408385031215611fae57600080fd5b611fb783611f7f565b946020939093013593505050565b600080600060608486031215611fda57600080fd5b611fe384611f7f565b9250611ff160208501611f7f565b9150604084013590509250925092565b6000806020838503121561201457600080fd5b823567ffffffffffffffff8082111561202c57600080fd5b818501915085601f83011261204057600080fd5b81358181111561204f57600080fd5b86602082850101111561206157600080fd5b60209290920196919550909350505050565b60006020828403121561208557600080fd5b61124582611f7f565b600080604083850312156120a157600080fd5b6120aa83611f7f565b9150602083013580151581146120bf57600080fd5b809150509250929050565b634e487b7160e01b600052604160045260246000fd5b600080600080608085870312156120f657600080fd5b6120ff85611f7f565b935061210d60208601611f7f565b925060408501359150606085013567ffffffffffffffff8082111561213157600080fd5b818701915087601f83011261214557600080fd5b813581811115612157576121576120ca565b604051601f8201601f19908116603f0116810190838211818310171561217f5761217f6120ca565b816040528281528a602084870101111561219857600080fd5b82602086016020830137600060208483010152809550505050505092959194509250565b600080604083850312156121cf57600080fd5b6121d883611f7f565b91506121e660208401611f7f565b90509250929050565b600181811c9082168061220357607f821691505b6020821081141561222457634e487b7160e01b600052602260045260246000fd5b50919050565b6020808252818101527f4f776e61626c653a2063616c6c6572206973206e6f7420746865206f776e6572604082015260600190565b634e487b7160e01b600052601160045260246000fd5b60006000198214156122895761228961225f565b5060010190565b600082198211156122a3576122a361225f565b500190565b60008160001904831182151516156122c2576122c261225f565b500290565b60208082526033908201527f455243373231413a207472616e7366657220746f206e6f6e204552433732315260408201527232b1b2b4bb32b91034b6b83632b6b2b73a32b960691b606082015260800190565b6000835161232c818460208801611efb565b835190830190612340818360208801611efb565b64173539b7b760d91b9101908152600501949350505050565b60006001600160801b03838116908316818110156123795761237961225f565b039392505050565b60006001600160801b038083168185168083038211156123a3576123a361225f565b01949350505050565b6000602082840312156123be57600080fd5b5051919050565b6000828210156123d7576123d761225f565b500390565b6000816123eb576123eb61225f565b506000190190565b6001600160a01b038581168252841660208201526040810183905260806060820181905260009061242690830184611f27565b9695505050505050565b60006020828403121561244257600080fd5b815161124581611ec8565b634e487b7160e01b600052601260045260246000fd5b6000826124725761247261244d565b500490565b6000826124865761248661244d565b500690565b634e487b7160e01b600052603260045260246000fdfea2646970667358221220cee8a15cea3b9fe38f36550d51fef96c6b627dbf2143eeeb18b6ca81b94eaa0064736f6c634300080b0033",
  "immutableReferences": {
    "1291": [
      {
        "length": 32,
        "start": 6103
      },
      {
        "length": 32,
        "start": 6145
      },
      {
        "length": 32,
        "start": 7194
      }
    ],
    "3206": [
      {
        "length": 32,
        "start": 3967
      }
    ]
  },
  "source": "// SPDX-License-Identifier: MIT\npragma solidity 0.8.11;\n\nimport \"./ERC721A.sol\";\nimport \"./Ownable.sol\";\nimport \"./Counters.sol\";\n\ninterface IExternalContract {\n    function balanceOf(address owner) external view returns (uint256);\n}\n\ncontract RichApesClub is ERC721A, Ownable {\n    using Strings for uint256;\n    using Counters for Counters.Counter;\n\n    uint256 public maxMintSupply = 10000;\n    uint256 public limitPerWallet = 30;\n\n    string public baseURI;\n\n    bool public publicState = true;\n\n    uint256 immutable price = 77700000000000000; //0.0777 ETH\n\n    mapping(address => bool) public _claimed;\n\n    // interaction with external contract\n    address public externalContractAddress; // hardcoded, from constructor or set by method?\n\n    function setExternalContractAddress(address contractAddress) external onlyOwner {\n        externalContractAddress = contractAddress;\n    }\n\n    function externalBalanceOf(address owner) internal view returns (uint256) {\n        return IExternalContract(externalContractAddress).balanceOf(owner);\n    }\n\n    // new mint\n    function newMint(uint256 _amount) external payable {\n        require(publicState, \"mint disabled\");\n        require(_amount > 0, \"zero amount\");\n        require(_amount <= limitPerWallet, \"can't mint so much tokens\"); // this is per tx or overall? if overall we need to change to `_amount <= limitPerWallet - balanceOf(msg.sender)`\n        require(totalSupply() + _amount <= maxMintSupply, \"max supply exceeded\");\n        require(msg.value >= price * _amount , \"value sent is not correct\");\n\n       _safeMint(_msgSender(), _amount);\n    }\n\n    function claim() external payable {\n        // add bool claimState and require?\n        require(externalBalanceOf(msg.sender) > 0, \"nothing to claim\");\n        require(!_claimed[msg.sender], \"already claimed\");\n        require(externalBalanceOf(msg.sender) <= limitPerWallet, \"can't mint so much tokens\"); // this is per tx or overall? if overall we need to change to `externalBalanceOf(msg.sender) <= limitPerWallet - balanceOf(msg.sender)`\n        require(totalSupply() + externalBalanceOf(msg.sender) <= maxMintSupply, \"max supply exceeded\");\n\n        _safeMint(_msgSender(), externalBalanceOf(msg.sender));\n\n        _claimed[msg.sender] = true;\n    }\n\n    // new set baseURI method\n    function setBaseURI(string calldata _tokenBaseURI) external onlyOwner {\n        baseURI = _tokenBaseURI;\n    }\n\n    function withdraw() public onlyOwner {\n        payable(msg.sender).transfer(address(this).balance);\n    }\n\n    // ------------------------------------\n    // rest\n\n    constructor()\n        ERC721A(\"RichApesClub\", \"RAC\", limitPerWallet, maxMintSupply) {\n        _transferOwnership(0x9530EcAaF1A01Ad6034e5aA6a36B06a6b8a103bf);\n    }\n\n    function enable() public onlyOwner {\n        publicState = true;\n    }\n\n    function disable() public onlyOwner {\n        publicState = false;\n    }\n\n    function mint(uint256 _amount) external payable {\n        require(publicState, \"mint disabled\");\n        require(_amount > 0, \"zero amount\");\n        require(_amount <= limitPerWallet, \"can't mint so much tokens\");\n        require(totalSupply() + _amount <= maxMintSupply, \"max supply exceeded\");\n        require(msg.value >= price * _amount , \"value sent is not correct\");\n\n        _safeMint(_msgSender(), _amount);\n    }\n\n    function _baseURI() internal view override returns (string memory) {\n        return baseURI;\n    }\n}",
  "sourcePath": "C:\\xampp\\htdocs\\richapesclub\\contracts\\RichApesClub.sol",
  "compiler": {
    "name": "solc",
    "version": "0.8.11+commit.d7f03943.Emscripten.clang"
  },
  "schemaVersion": "3.4.4",
  "updatedAt": "2022-02-18T18:53:01.697Z",
  "devdoc": {
    "kind": "dev",
    "methods": {
      "approve(address,uint256)": {
        "details": "See {IERC721-approve}."
      },
      "balanceOf(address)": {
        "details": "See {IERC721-balanceOf}."
      },
      "getApproved(uint256)": {
        "details": "See {IERC721-getApproved}."
      },
      "isApprovedForAll(address,address)": {
        "details": "See {IERC721-isApprovedForAll}."
      },
      "name()": {
        "details": "See {IERC721Metadata-name}."
      },
      "owner()": {
        "details": "Returns the address of the current owner."
      },
      "ownerOf(uint256)": {
        "details": "See {IERC721-ownerOf}."
      },
      "renounceOwnership()": {
        "details": "Leaves the contract without owner. It will not be possible to call `onlyOwner` functions anymore. Can only be called by the current owner. NOTE: Renouncing ownership will leave the contract without an owner, thereby removing any functionality that is only available to the owner."
      },
      "safeTransferFrom(address,address,uint256)": {
        "details": "See {IERC721-safeTransferFrom}."
      },
      "safeTransferFrom(address,address,uint256,bytes)": {
        "details": "See {IERC721-safeTransferFrom}."
      },
      "setApprovalForAll(address,bool)": {
        "details": "See {IERC721-setApprovalForAll}."
      },
      "supportsInterface(bytes4)": {
        "details": "See {IERC165-supportsInterface}."
      },
      "symbol()": {
        "details": "See {IERC721Metadata-symbol}."
      },
      "tokenByIndex(uint256)": {
        "details": "See {IERC721Enumerable-tokenByIndex}."
      },
      "tokenOfOwnerByIndex(address,uint256)": {
        "details": "See {IERC721Enumerable-tokenOfOwnerByIndex}. This read function is O(collectionSize). If calling from a separate contract, be sure to test gas first. It may also degrade with extremely large collection sizes (e.g >> 10000), test for your use case."
      },
      "tokenURI(uint256)": {
        "details": "See {IERC721Metadata-tokenURI}."
      },
      "totalSupply()": {
        "details": "See {IERC721Enumerable-totalSupply}."
      },
      "transferFrom(address,address,uint256)": {
        "details": "See {IERC721-transferFrom}."
      },
      "transferOwnership(address)": {
        "details": "Transfers ownership of the contract to a new account (`newOwner`). Can only be called by the current owner."
      }
    },
    "version": 1
  },
  "userdoc": {
    "kind": "user",
    "methods": {},
    "version": 1
  }
}