{
  "contractName": "RichApesClub",
  "abi": [
    {
      "inputs": [],
      "stateMutability": "nonpayable",
      "type": "constructor"
    },
    {
      "anonymous": false,
      "inputs": [
        {
          "indexed": true,
          "internalType": "address",
          "name": "owner",
          "type": "address"
        },
        {
          "indexed": true,
          "internalType": "address",
          "name": "approved",
          "type": "address"
        },
        {
          "indexed": true,
          "internalType": "uint256",
          "name": "tokenId",
          "type": "uint256"
        }
      ],
      "name": "Approval",
      "type": "event"
    },
    {
      "anonymous": false,
      "inputs": [
        {
          "indexed": true,
          "internalType": "address",
          "name": "owner",
          "type": "address"
        },
        {
          "indexed": true,
          "internalType": "address",
          "name": "operator",
          "type": "address"
        },
        {
          "indexed": false,
          "internalType": "bool",
          "name": "approved",
          "type": "bool"
        }
      ],
      "name": "ApprovalForAll",
      "type": "event"
    },
    {
      "anonymous": false,
      "inputs": [
        {
          "indexed": true,
          "internalType": "address",
          "name": "previousOwner",
          "type": "address"
        },
        {
          "indexed": true,
          "internalType": "address",
          "name": "newOwner",
          "type": "address"
        }
      ],
      "name": "OwnershipTransferred",
      "type": "event"
    },
    {
      "anonymous": false,
      "inputs": [
        {
          "indexed": true,
          "internalType": "address",
          "name": "from",
          "type": "address"
        },
        {
          "indexed": true,
          "internalType": "address",
          "name": "to",
          "type": "address"
        },
        {
          "indexed": true,
          "internalType": "uint256",
          "name": "tokenId",
          "type": "uint256"
        }
      ],
      "name": "Transfer",
      "type": "event"
    },
    {
      "inputs": [
        {
          "internalType": "address",
          "name": "",
          "type": "address"
        }
      ],
      "name": "_claimed",
      "outputs": [
        {
          "internalType": "bool",
          "name": "",
          "type": "bool"
        }
      ],
      "stateMutability": "view",
      "type": "function",
      "constant": true
    },
    {
      "inputs": [
        {
          "internalType": "address",
          "name": "to",
          "type": "address"
        },
        {
          "internalType": "uint256",
          "name": "tokenId",
          "type": "uint256"
        }
      ],
      "name": "approve",
      "outputs": [],
      "stateMutability": "nonpayable",
      "type": "function"
    },
    {
      "inputs": [
        {
          "internalType": "address",
          "name": "owner",
          "type": "address"
        }
      ],
      "name": "balanceOf",
      "outputs": [
        {
          "internalType": "uint256",
          "name": "",
          "type": "uint256"
        }
      ],
      "stateMutability": "view",
      "type": "function",
      "constant": true
    },
    {
      "inputs": [],
      "name": "baseURI",
      "outputs": [
        {
          "internalType": "string",
          "name": "",
          "type": "string"
        }
      ],
      "stateMutability": "view",
      "type": "function",
      "constant": true
    },
    {
      "inputs": [],
      "name": "externalContractAddress",
      "outputs": [
        {
          "internalType": "address",
          "name": "",
          "type": "address"
        }
      ],
      "stateMutability": "view",
      "type": "function",
      "constant": true
    },
    {
      "inputs": [
        {
          "internalType": "uint256",
          "name": "tokenId",
          "type": "uint256"
        }
      ],
      "name": "getApproved",
      "outputs": [
        {
          "internalType": "address",
          "name": "",
          "type": "address"
        }
      ],
      "stateMutability": "view",
      "type": "function",
      "constant": true
    },
    {
      "inputs": [
        {
          "internalType": "address",
          "name": "owner",
          "type": "address"
        },
        {
          "internalType": "address",
          "name": "operator",
          "type": "address"
        }
      ],
      "name": "isApprovedForAll",
      "outputs": [
        {
          "internalType": "bool",
          "name": "",
          "type": "bool"
        }
      ],
      "stateMutability": "view",
      "type": "function",
      "constant": true
    },
    {
      "inputs": [],
      "name": "limitPerWallet",
      "outputs": [
        {
          "internalType": "uint256",
          "name": "",
          "type": "uint256"
        }
      ],
      "stateMutability": "view",
      "type": "function",
      "constant": true
    },
    {
      "inputs": [],
      "name": "maxMintSupply",
      "outputs": [
        {
          "internalType": "uint256",
          "name": "",
          "type": "uint256"
        }
      ],
      "stateMutability": "view",
      "type": "function",
      "constant": true
    },
    {
      "inputs": [],
      "name": "name",
      "outputs": [
        {
          "internalType": "string",
          "name": "",
          "type": "string"
        }
      ],
      "stateMutability": "view",
      "type": "function",
      "constant": true
    },
    {
      "inputs": [],
      "name": "nextOwnerToExplicitlySet",
      "outputs": [
        {
          "internalType": "uint256",
          "name": "",
          "type": "uint256"
        }
      ],
      "stateMutability": "view",
      "type": "function",
      "constant": true
    },
    {
      "inputs": [],
      "name": "owner",
      "outputs": [
        {
          "internalType": "address",
          "name": "",
          "type": "address"
        }
      ],
      "stateMutability": "view",
      "type": "function",
      "constant": true
    },
    {
      "inputs": [
        {
          "internalType": "uint256",
          "name": "tokenId",
          "type": "uint256"
        }
      ],
      "name": "ownerOf",
      "outputs": [
        {
          "internalType": "address",
          "name": "",
          "type": "address"
        }
      ],
      "stateMutability": "view",
      "type": "function",
      "constant": true
    },
    {
      "inputs": [],
      "name": "publicState",
      "outputs": [
        {
          "internalType": "bool",
          "name": "",
          "type": "bool"
        }
      ],
      "stateMutability": "view",
      "type": "function",
      "constant": true
    },
    {
      "inputs": [],
      "name": "renounceOwnership",
      "outputs": [],
      "stateMutability": "nonpayable",
      "type": "function"
    },
    {
      "inputs": [
        {
          "internalType": "address",
          "name": "from",
          "type": "address"
        },
        {
          "internalType": "address",
          "name": "to",
          "type": "address"
        },
        {
          "internalType": "uint256",
          "name": "tokenId",
          "type": "uint256"
        }
      ],
      "name": "safeTransferFrom",
      "outputs": [],
      "stateMutability": "nonpayable",
      "type": "function"
    },
    {
      "inputs": [
        {
          "internalType": "address",
          "name": "from",
          "type": "address"
        },
        {
          "internalType": "address",
          "name": "to",
          "type": "address"
        },
        {
          "internalType": "uint256",
          "name": "tokenId",
          "type": "uint256"
        },
        {
          "internalType": "bytes",
          "name": "_data",
          "type": "bytes"
        }
      ],
      "name": "safeTransferFrom",
      "outputs": [],
      "stateMutability": "nonpayable",
      "type": "function"
    },
    {
      "inputs": [
        {
          "internalType": "address",
          "name": "operator",
          "type": "address"
        },
        {
          "internalType": "bool",
          "name": "approved",
          "type": "bool"
        }
      ],
      "name": "setApprovalForAll",
      "outputs": [],
      "stateMutability": "nonpayable",
      "type": "function"
    },
    {
      "inputs": [
        {
          "internalType": "bytes4",
          "name": "interfaceId",
          "type": "bytes4"
        }
      ],
      "name": "supportsInterface",
      "outputs": [
        {
          "internalType": "bool",
          "name": "",
          "type": "bool"
        }
      ],
      "stateMutability": "view",
      "type": "function",
      "constant": true
    },
    {
      "inputs": [],
      "name": "symbol",
      "outputs": [
        {
          "internalType": "string",
          "name": "",
          "type": "string"
        }
      ],
      "stateMutability": "view",
      "type": "function",
      "constant": true
    },
    {
      "inputs": [
        {
          "internalType": "uint256",
          "name": "index",
          "type": "uint256"
        }
      ],
      "name": "tokenByIndex",
      "outputs": [
        {
          "internalType": "uint256",
          "name": "",
          "type": "uint256"
        }
      ],
      "stateMutability": "view",
      "type": "function",
      "constant": true
    },
    {
      "inputs": [
        {
          "internalType": "address",
          "name": "owner",
          "type": "address"
        },
        {
          "internalType": "uint256",
          "name": "index",
          "type": "uint256"
        }
      ],
      "name": "tokenOfOwnerByIndex",
      "outputs": [
        {
          "internalType": "uint256",
          "name": "",
          "type": "uint256"
        }
      ],
      "stateMutability": "view",
      "type": "function",
      "constant": true
    },
    {
      "inputs": [
        {
          "internalType": "uint256",
          "name": "tokenId",
          "type": "uint256"
        }
      ],
      "name": "tokenURI",
      "outputs": [
        {
          "internalType": "string",
          "name": "",
          "type": "string"
        }
      ],
      "stateMutability": "view",
      "type": "function",
      "constant": true
    },
    {
      "inputs": [],
      "name": "totalSupply",
      "outputs": [
        {
          "internalType": "uint256",
          "name": "",
          "type": "uint256"
        }
      ],
      "stateMutability": "view",
      "type": "function",
      "constant": true
    },
    {
      "inputs": [
        {
          "internalType": "address",
          "name": "from",
          "type": "address"
        },
        {
          "internalType": "address",
          "name": "to",
          "type": "address"
        },
        {
          "internalType": "uint256",
          "name": "tokenId",
          "type": "uint256"
        }
      ],
      "name": "transferFrom",
      "outputs": [],
      "stateMutability": "nonpayable",
      "type": "function"
    },
    {
      "inputs": [
        {
          "internalType": "address",
          "name": "newOwner",
          "type": "address"
        }
      ],
      "name": "transferOwnership",
      "outputs": [],
      "stateMutability": "nonpayable",
      "type": "function"
    },
    {
      "inputs": [],
      "name": "enable",
      "outputs": [],
      "stateMutability": "nonpayable",
      "type": "function"
    },
    {
      "inputs": [],
      "name": "disable",
      "outputs": [],
      "stateMutability": "nonpayable",
      "type": "function"
    },
    {
      "inputs": [
        {
          "internalType": "string",
          "name": "_tokenBaseURI",
          "type": "string"
        }
      ],
      "name": "setBaseURI",
      "outputs": [],
      "stateMutability": "nonpayable",
      "type": "function"
    },
    {
      "inputs": [
        {
          "internalType": "address",
          "name": "contractAddress",
          "type": "address"
        }
      ],
      "name": "setExternalContractAddress",
      "outputs": [],
      "stateMutability": "nonpayable",
      "type": "function"
    },
    {
      "inputs": [
        {
          "internalType": "address",
          "name": "owner",
          "type": "address"
        }
      ],
      "name": "externalBalanceOf",
      "outputs": [
        {
          "internalType": "uint256",
          "name": "",
          "type": "uint256"
        }
      ],
      "stateMutability": "view",
      "type": "function",
      "constant": true
    },
    {
      "inputs": [
        {
          "internalType": "uint256",
          "name": "_amount",
          "type": "uint256"
        }
      ],
      "name": "mint",
      "outputs": [],
      "stateMutability": "payable",
      "type": "function",
      "payable": true
    },
    {
      "inputs": [],
      "name": "claim",
      "outputs": [],
      "stateMutability": "payable",
      "type": "function",
      "payable": true
    },
    {
      "inputs": [],
      "name": "withdraw",
      "outputs": [],
      "stateMutability": "nonpayable",
      "type": "function"
    }
  ],
  "bytecode": "0x60e060405260008080556007556701140bbd030c400060c05261115c600955601e600a55600b805460ff191660011790553480156200003d57600080fd5b506040518060400160405280600c81526020016b2934b1b420b832b9a1b63ab160a11b8152506040518060400160405280600381526020016252414360e81b815250600a5460095460008111620000f25760405162461bcd60e51b815260206004820152602e60248201527f455243373231413a20636f6c6c656374696f6e206d757374206861766520612060448201526d6e6f6e7a65726f20737570706c7960901b60648201526084015b60405180910390fd5b60008211620001545760405162461bcd60e51b815260206004820152602760248201527f455243373231413a206d61782062617463682073697a65206d757374206265206044820152666e6f6e7a65726f60c81b6064820152608401620000e9565b8351620001699060019060208701906200020e565b5082516200017f9060029060208601906200020e565b5060a0919091526080525062000197905033620001bc565b620001b6739530ecaaf1a01ad6034e5aa6a36b06a6b8a103bf620001bc565b620002f1565b600880546001600160a01b038381166001600160a01b0319831681179093556040519116919082907f8be0079c531659141344cd1fd0a4f28419497f9722a3daafe3b4186f6b6457e090600090a35050565b8280546200021c90620002b4565b90600052602060002090601f0160209004810192826200024057600085556200028b565b82601f106200025b57805160ff19168380011785556200028b565b828001600101855582156200028b579182015b828111156200028b5782518255916020019190600101906200026e565b50620002999291506200029d565b5090565b5b808211156200029957600081556001016200029e565b600181811c90821680620002c957607f821691505b60208210811415620002eb57634e487b7160e01b600052602260045260246000fd5b50919050565b60805160a05160c0516124f76200032c600039600061100e0152600081816117f7015281816118210152611c3a0152600050506124f76000f3fe6080604052600436106101f95760003560e01c806370a082311161010d578063abfe7614116100a0578063c87b56dd1161006f578063c87b56dd1461054b578063d7224ba01461056b578063dd896a1c14610581578063e985e9c5146105b1578063f2fde38b146105fa57600080fd5b8063abfe7614146104db578063b88d4fde146104f5578063c27df47114610515578063c285e1071461053557600080fd5b8063a0712d68116100dc578063a0712d681461047d578063a22cb46514610490578063a3907d71146104b0578063a620ce5a146104c557600080fd5b806370a0823114610415578063715018a6146104355780638da5cb5b1461044a57806395d89b411461046857600080fd5b80632f745c59116101905780634f6ccce71161015f5780634f6ccce71461038057806355f804b3146103a05780636352211e146103c057806367e86f55146103e05780636c0360eb1461040057600080fd5b80632f745c59146103235780633ccfd60b1461034357806342842e0e146103585780634e71d92d1461037857600080fd5b806318160ddd116101cc57806318160ddd146102af5780632176d50a146102ce57806323b872dd146102ee5780632f2770db1461030e57600080fd5b806301ffc9a7146101fe57806306fdde0314610233578063081812fc14610255578063095ea7b31461028d575b600080fd5b34801561020a57600080fd5b5061021e610219366004611efe565b61061a565b60405190151581526020015b60405180910390f35b34801561023f57600080fd5b50610248610687565b60405161022a9190611f73565b34801561026157600080fd5b50610275610270366004611f86565b610719565b6040516001600160a01b03909116815260200161022a565b34801561029957600080fd5b506102ad6102a8366004611fbb565b6107a9565b005b3480156102bb57600080fd5b506000545b60405190815260200161022a565b3480156102da57600080fd5b50600d54610275906001600160a01b031681565b3480156102fa57600080fd5b506102ad610309366004611fe5565b6108c1565b34801561031a57600080fd5b506102ad6108cc565b34801561032f57600080fd5b506102c061033e366004611fbb565b610902565b34801561034f57600080fd5b506102ad610a70565b34801561036457600080fd5b506102ad610373366004611fe5565b610ac9565b6102ad610ae4565b34801561038c57600080fd5b506102c061039b366004611f86565b610c62565b3480156103ac57600080fd5b506102ad6103bb366004612021565b610cc4565b3480156103cc57600080fd5b506102756103db366004611f86565b610cfa565b3480156103ec57600080fd5b506102c06103fb366004612093565b610d0c565b34801561040c57600080fd5b50610248610d7b565b34801561042157600080fd5b506102c0610430366004612093565b610e09565b34801561044157600080fd5b506102ad610e9a565b34801561045657600080fd5b506008546001600160a01b0316610275565b34801561047457600080fd5b50610248610ed0565b6102ad61048b366004611f86565b610edf565b34801561049c57600080fd5b506102ad6104ab3660046120ae565b61108b565b3480156104bc57600080fd5b506102ad611150565b3480156104d157600080fd5b506102c0600a5481565b3480156104e757600080fd5b50600b5461021e9060ff1681565b34801561050157600080fd5b506102ad610510366004612100565b611189565b34801561052157600080fd5b506102ad610530366004612093565b6111c2565b34801561054157600080fd5b506102c060095481565b34801561055757600080fd5b50610248610566366004611f86565b61120e565b34801561057757600080fd5b506102c060075481565b34801561058d57600080fd5b5061021e61059c366004612093565b600e6020526000908152604090205460ff1681565b3480156105bd57600080fd5b5061021e6105cc3660046121dc565b6001600160a01b03918216600090815260066020908152604080832093909416825291909152205460ff1690565b34801561060657600080fd5b506102ad610615366004612093565b6112db565b60006001600160e01b031982166380ac58cd60e01b148061064b57506001600160e01b03198216635b5e139f60e01b145b8061066657506001600160e01b0319821663780e9d6360e01b145b8061068157506301ffc9a760e01b6001600160e01b03198316145b92915050565b6060600180546106969061220f565b80601f01602080910402602001604051908101604052809291908181526020018280546106c29061220f565b801561070f5780601f106106e45761010080835404028352916020019161070f565b820191906000526020600020905b8154815290600101906020018083116106f257829003601f168201915b5050505050905090565b6000610726826000541190565b61078d5760405162461bcd60e51b815260206004820152602d60248201527f455243373231413a20617070726f76656420717565727920666f72206e6f6e6560448201526c3c34b9ba32b73a103a37b5b2b760991b60648201526084015b60405180910390fd5b506000908152600560205260409020546001600160a01b031690565b60006107b482610cfa565b9050806001600160a01b0316836001600160a01b031614156108235760405162461bcd60e51b815260206004820152602260248201527f455243373231413a20617070726f76616c20746f2063757272656e74206f776e60448201526132b960f11b6064820152608401610784565b336001600160a01b038216148061083f575061083f81336105cc565b6108b15760405162461bcd60e51b815260206004820152603960248201527f455243373231413a20617070726f76652063616c6c6572206973206e6f74206f60448201527f776e6572206e6f7220617070726f76656420666f7220616c6c000000000000006064820152608401610784565b6108bc838383611373565b505050565b6108bc8383836113cf565b6008546001600160a01b031633146108f65760405162461bcd60e51b81526004016107849061224a565b600b805460ff19169055565b600061090d83610e09565b82106109665760405162461bcd60e51b815260206004820152602260248201527f455243373231413a206f776e657220696e646578206f7574206f6620626f756e604482015261647360f01b6064820152608401610784565b600080549080805b83811015610a10576000818152600360209081526040918290208251808401909352546001600160a01b038116808452600160a01b90910467ffffffffffffffff1691830191909152156109c157805192505b876001600160a01b0316836001600160a01b031614156109fd57868414156109ef5750935061068192505050565b836109f981612295565b9450505b5080610a0881612295565b91505061096e565b5060405162461bcd60e51b815260206004820152602e60248201527f455243373231413a20756e61626c6520746f2067657420746f6b656e206f662060448201526d0deeedccae440c4f240d2dcc8caf60931b6064820152608401610784565b6008546001600160a01b03163314610a9a5760405162461bcd60e51b81526004016107849061224a565b60405133904780156108fc02916000818181858888f19350505050158015610ac6573d6000803e3d6000fd5b50565b6108bc83838360405180602001604052806000815250611189565b6000610aef33610d0c565b11610b2f5760405162461bcd60e51b815260206004820152601060248201526f6e6f7468696e6720746f20636c61696d60801b6044820152606401610784565b336000908152600e602052604090205460ff1615610b815760405162461bcd60e51b815260206004820152600f60248201526e185b1c9958591e4818db185a5b5959608a1b6044820152606401610784565b600a54610b8d33610d0c565b1115610bd75760405162461bcd60e51b815260206004820152601960248201527863616e2774206d696e7420736f206d75636820746f6b656e7360381b6044820152606401610784565b600954610be333610d0c565b600054610bf091906122b0565b1115610c345760405162461bcd60e51b81526020600482015260136024820152721b585e081cdd5c1c1b1e48195e18d959591959606a1b6044820152606401610784565b610c4633610c4133610d0c565b611757565b336000908152600e60205260409020805460ff19166001179055565b600080548210610cc05760405162461bcd60e51b815260206004820152602360248201527f455243373231413a20676c6f62616c20696e646578206f7574206f6620626f756044820152626e647360e81b6064820152608401610784565b5090565b6008546001600160a01b03163314610cee5760405162461bcd60e51b81526004016107849061224a565b6108bc600c8383611e58565b6000610d0582611775565b5192915050565b600d546040516370a0823160e01b81526001600160a01b03838116600483015260009216906370a0823190602401602060405180830381865afa158015610d57573d6000803e3d6000fd5b505050506040513d601f19601f8201168201806040525081019061068191906122c8565b600c8054610d889061220f565b80601f0160208091040260200160405190810160405280929190818152602001828054610db49061220f565b8015610e015780601f10610dd657610100808354040283529160200191610e01565b820191906000526020600020905b815481529060010190602001808311610de457829003601f168201915b505050505081565b60006001600160a01b038216610e755760405162461bcd60e51b815260206004820152602b60248201527f455243373231413a2062616c616e636520717565727920666f7220746865207a60448201526a65726f206164647265737360a81b6064820152608401610784565b506001600160a01b03166000908152600460205260409020546001600160801b031690565b6008546001600160a01b03163314610ec45760405162461bcd60e51b81526004016107849061224a565b610ece600061191f565b565b6060600280546106969061220f565b600b5460ff16610f215760405162461bcd60e51b815260206004820152600d60248201526c1b5a5b9d08191a5cd8589b1959609a1b6044820152606401610784565b60008111610f5f5760405162461bcd60e51b815260206004820152600b60248201526a1e995c9bc8185b5bdd5b9d60aa1b6044820152606401610784565b600a54811115610fad5760405162461bcd60e51b815260206004820152601960248201527863616e2774206d696e7420736f206d75636820746f6b656e7360381b6044820152606401610784565b60095481610fba60005490565b610fc491906122b0565b11156110085760405162461bcd60e51b81526020600482015260136024820152721b585e081cdd5c1c1b1e48195e18d959591959606a1b6044820152606401610784565b611032817f00000000000000000000000000000000000000000000000000000000000000006122e1565b3410156110815760405162461bcd60e51b815260206004820152601960248201527f76616c75652073656e74206973206e6f7420636f7272656374000000000000006044820152606401610784565b610ac63382611757565b6001600160a01b0382163314156110e45760405162461bcd60e51b815260206004820152601a60248201527f455243373231413a20617070726f766520746f2063616c6c65720000000000006044820152606401610784565b3360008181526006602090815260408083206001600160a01b03871680855290835292819020805460ff191686151590811790915590519081529192917f17307eab39ab6107e8899845ad3d59bd9653f200f220920489ca2b5937696c31910160405180910390a35050565b6008546001600160a01b0316331461117a5760405162461bcd60e51b81526004016107849061224a565b600b805460ff19166001179055565b6111948484846113cf565b6111a084848484611971565b6111bc5760405162461bcd60e51b815260040161078490612300565b50505050565b6008546001600160a01b031633146111ec5760405162461bcd60e51b81526004016107849061224a565b600d80546001600160a01b0319166001600160a01b0392909216919091179055565b606061121b826000541190565b61127f5760405162461bcd60e51b815260206004820152602f60248201527f4552433732314d657461646174613a2055524920717565727920666f72206e6f60448201526e3732bc34b9ba32b73a103a37b5b2b760891b6064820152608401610784565b6000611289611a70565b905060008151116112a957604051806020016040528060008152506112d4565b806112b384611a7f565b6040516020016112c4929190612353565b6040516020818303038152906040525b9392505050565b6008546001600160a01b031633146113055760405162461bcd60e51b81526004016107849061224a565b6001600160a01b03811661136a5760405162461bcd60e51b815260206004820152602660248201527f4f776e61626c653a206e6577206f776e657220697320746865207a65726f206160448201526564647265737360d01b6064820152608401610784565b610ac68161191f565b60008281526005602052604080822080546001600160a01b0319166001600160a01b0387811691821790925591518593918516917f8c5be1e5ebec7d5bd14f71427d1e84f3dd0314c0f7b2291e5b200ac8c7c3b92591a4505050565b60006113da82611775565b80519091506000906001600160a01b0316336001600160a01b0316148061141157503361140684610719565b6001600160a01b0316145b806114235750815161142390336105cc565b90508061148d5760405162461bcd60e51b815260206004820152603260248201527f455243373231413a207472616e736665722063616c6c6572206973206e6f74206044820152711bdddb995c881b9bdc88185c1c1c9bdd995960721b6064820152608401610784565b846001600160a01b031682600001516001600160a01b0316146115015760405162461bcd60e51b815260206004820152602660248201527f455243373231413a207472616e736665722066726f6d20696e636f72726563746044820152651037bbb732b960d11b6064820152608401610784565b6001600160a01b0384166115655760405162461bcd60e51b815260206004820152602560248201527f455243373231413a207472616e7366657220746f20746865207a65726f206164604482015264647265737360d81b6064820152608401610784565b6115756000848460000151611373565b6001600160a01b03851660009081526004602052604081208054600192906115a79084906001600160801b0316612392565b82546101009290920a6001600160801b038181021990931691831602179091556001600160a01b038616600090815260046020526040812080546001945090926115f3918591166123ba565b82546001600160801b039182166101009390930a9283029190920219909116179055506040805180820182526001600160a01b03808716825267ffffffffffffffff428116602080850191825260008981526003909152948520935184549151909216600160a01b026001600160e01b0319909116919092161717905561167b8460016122b0565b6000818152600360205260409020549091506001600160a01b031661170d576116a5816000541190565b1561170d5760408051808201825284516001600160a01b03908116825260208087015167ffffffffffffffff9081168285019081526000878152600390935294909120925183549451909116600160a01b026001600160e01b03199094169116179190911790555b83856001600160a01b0316876001600160a01b03167fddf252ad1be2c89b69c2b068fc378daa952ba7f163c4a11628f55a4df523b3ef60405160405180910390a45b505050505050565b611771828260405180602001604052806000815250611b7d565b5050565b6040805180820190915260008082526020820152611794826000541190565b6117f35760405162461bcd60e51b815260206004820152602a60248201527f455243373231413a206f776e657220717565727920666f72206e6f6e657869736044820152693a32b73a103a37b5b2b760b11b6064820152608401610784565b60007f00000000000000000000000000000000000000000000000000000000000000008310611854576118467f0000000000000000000000000000000000000000000000000000000000000000846123e5565b6118519060016122b0565b90505b825b8181106118be576000818152600360209081526040918290208251808401909352546001600160a01b038116808452600160a01b90910467ffffffffffffffff1691830191909152156118ab57949350505050565b50806118b6816123fc565b915050611856565b5060405162461bcd60e51b815260206004820152602f60248201527f455243373231413a20756e61626c6520746f2064657465726d696e652074686560448201526e1037bbb732b91037b3103a37b5b2b760891b6064820152608401610784565b600880546001600160a01b038381166001600160a01b0319831681179093556040519116919082907f8be0079c531659141344cd1fd0a4f28419497f9722a3daafe3b4186f6b6457e090600090a35050565b60006001600160a01b0384163b15611a6457604051630a85bd0160e11b81526001600160a01b0385169063150b7a02906119b5903390899088908890600401612413565b6020604051808303816000875af19250505080156119f0575060408051601f3d908101601f191682019092526119ed91810190612450565b60015b611a4a573d808015611a1e576040519150601f19603f3d011682016040523d82523d6000602084013e611a23565b606091505b508051611a425760405162461bcd60e51b815260040161078490612300565b805181602001fd5b6001600160e01b031916630a85bd0160e11b149050611a68565b5060015b949350505050565b6060600c80546106969061220f565b606081611aa35750506040805180820190915260018152600360fc1b602082015290565b8160005b8115611acd5780611ab781612295565b9150611ac69050600a83612483565b9150611aa7565b60008167ffffffffffffffff811115611ae857611ae86120ea565b6040519080825280601f01601f191660200182016040528015611b12576020820181803683370190505b5090505b8415611a6857611b276001836123e5565b9150611b34600a86612497565b611b3f9060306122b0565b60f81b818381518110611b5457611b546124ab565b60200101906001600160f81b031916908160001a905350611b76600a86612483565b9450611b16565b6000546001600160a01b038416611be05760405162461bcd60e51b815260206004820152602160248201527f455243373231413a206d696e7420746f20746865207a65726f206164647265736044820152607360f81b6064820152608401610784565b611beb816000541190565b15611c385760405162461bcd60e51b815260206004820152601d60248201527f455243373231413a20746f6b656e20616c7265616479206d696e7465640000006044820152606401610784565b7f0000000000000000000000000000000000000000000000000000000000000000831115611cb35760405162461bcd60e51b815260206004820152602260248201527f455243373231413a207175616e7469747920746f206d696e7420746f6f2068696044820152610ced60f31b6064820152608401610784565b6001600160a01b0384166000908152600460209081526040918290208251808401845290546001600160801b038082168352600160801b9091041691810191909152815180830190925280519091908190611d0f9087906123ba565b6001600160801b03168152602001858360200151611d2d91906123ba565b6001600160801b039081169091526001600160a01b0380881660008181526004602090815260408083208751978301518716600160801b0297909616969096179094558451808601865291825267ffffffffffffffff4281168386019081528883526003909552948120915182549451909516600160a01b026001600160e01b031990941694909216939093179190911790915582905b85811015611e4d5760405182906001600160a01b038916906000907fddf252ad1be2c89b69c2b068fc378daa952ba7f163c4a11628f55a4df523b3ef908290a4611e116000888488611971565b611e2d5760405162461bcd60e51b815260040161078490612300565b81611e3781612295565b9250508080611e4590612295565b915050611dc4565b50600081905561174f565b828054611e649061220f565b90600052602060002090601f016020900481019282611e865760008555611ecc565b82601f10611e9f5782800160ff19823516178555611ecc565b82800160010185558215611ecc579182015b82811115611ecc578235825591602001919060010190611eb1565b50610cc09291505b80821115610cc05760008155600101611ed4565b6001600160e01b031981168114610ac657600080fd5b600060208284031215611f1057600080fd5b81356112d481611ee8565b60005b83811015611f36578181015183820152602001611f1e565b838111156111bc5750506000910152565b60008151808452611f5f816020860160208601611f1b565b601f01601f19169290920160200192915050565b6020815260006112d46020830184611f47565b600060208284031215611f9857600080fd5b5035919050565b80356001600160a01b0381168114611fb657600080fd5b919050565b60008060408385031215611fce57600080fd5b611fd783611f9f565b946020939093013593505050565b600080600060608486031215611ffa57600080fd5b61200384611f9f565b925061201160208501611f9f565b9150604084013590509250925092565b6000806020838503121561203457600080fd5b823567ffffffffffffffff8082111561204c57600080fd5b818501915085601f83011261206057600080fd5b81358181111561206f57600080fd5b86602082850101111561208157600080fd5b60209290920196919550909350505050565b6000602082840312156120a557600080fd5b6112d482611f9f565b600080604083850312156120c157600080fd5b6120ca83611f9f565b9150602083013580151581146120df57600080fd5b809150509250929050565b634e487b7160e01b600052604160045260246000fd5b6000806000806080858703121561211657600080fd5b61211f85611f9f565b935061212d60208601611f9f565b925060408501359150606085013567ffffffffffffffff8082111561215157600080fd5b818701915087601f83011261216557600080fd5b813581811115612177576121776120ea565b604051601f8201601f19908116603f0116810190838211818310171561219f5761219f6120ea565b816040528281528a60208487010111156121b857600080fd5b82602086016020830137600060208483010152809550505050505092959194509250565b600080604083850312156121ef57600080fd5b6121f883611f9f565b915061220660208401611f9f565b90509250929050565b600181811c9082168061222357607f821691505b6020821081141561224457634e487b7160e01b600052602260045260246000fd5b50919050565b6020808252818101527f4f776e61626c653a2063616c6c6572206973206e6f7420746865206f776e6572604082015260600190565b634e487b7160e01b600052601160045260246000fd5b60006000198214156122a9576122a961227f565b5060010190565b600082198211156122c3576122c361227f565b500190565b6000602082840312156122da57600080fd5b5051919050565b60008160001904831182151516156122fb576122fb61227f565b500290565b60208082526033908201527f455243373231413a207472616e7366657220746f206e6f6e204552433732315260408201527232b1b2b4bb32b91034b6b83632b6b2b73a32b960691b606082015260800190565b60008351612365818460208801611f1b565b835190830190612379818360208801611f1b565b64173539b7b760d91b9101908152600501949350505050565b60006001600160801b03838116908316818110156123b2576123b261227f565b039392505050565b60006001600160801b038083168185168083038211156123dc576123dc61227f565b01949350505050565b6000828210156123f7576123f761227f565b500390565b60008161240b5761240b61227f565b506000190190565b6001600160a01b038581168252841660208201526040810183905260806060820181905260009061244690830184611f47565b9695505050505050565b60006020828403121561246257600080fd5b81516112d481611ee8565b634e487b7160e01b600052601260045260246000fd5b6000826124925761249261246d565b500490565b6000826124a6576124a661246d565b500690565b634e487b7160e01b600052603260045260246000fdfea264697066735822122067278bff59928fe3833e2928ec2e129f32ad9b7123032f0c12b93802dc2ca9ce64736f6c634300080b0033",
  "immutableReferences": {
    "1291": [
      {
        "length": 32,
        "start": 6135
      },
      {
        "length": 32,
        "start": 6177
      },
      {
        "length": 32,
        "start": 7226
      }
    ],
    "3195": [
      {
        "length": 32,
        "start": 4110
      }
    ]
  },
  "source": "// SPDX-License-Identifier: MIT\npragma solidity 0.8.11;\n\nimport \"./ERC721A.sol\";\nimport \"./Ownable.sol\";\nimport \"./Counters.sol\";\n\ninterface IExternalContract {\n    function balanceOf(address owner) external view returns (uint256);\n}\n\ncontract RichApesClub is ERC721A, Ownable {\n    using Strings for uint256;\n    using Counters for Counters.Counter;\n\n    uint256 immutable price = 77700000000000000; //0.0777 ETH\n\n    uint256 public maxMintSupply = 4444;\n    uint256 public limitPerWallet = 30;\n\n    bool public publicState = true;\n\n    string public baseURI;\n\n    address public externalContractAddress;\n\n    mapping(address => bool) public _claimed;\n\n    constructor()\n        ERC721A(\"RichApesClub\", \"RAC\", limitPerWallet, maxMintSupply) {\n        _transferOwnership(0x9530EcAaF1A01Ad6034e5aA6a36B06a6b8a103bf);\n    }\n\n    function enable() public onlyOwner {\n        publicState = true;\n    }\n\n    function disable() public onlyOwner {\n        publicState = false;\n    }\n\n    function setBaseURI(string calldata _tokenBaseURI) external onlyOwner {\n        baseURI = _tokenBaseURI;\n    }\n\n    function setExternalContractAddress(address contractAddress) external onlyOwner {\n        externalContractAddress = contractAddress;\n    }\n\n    function externalBalanceOf(address owner) public view returns (uint256) {\n        return IExternalContract(externalContractAddress).balanceOf(owner);\n    }\n\n    function mint(uint256 _amount) external payable {\n        require(publicState, \"mint disabled\");\n        require(_amount > 0, \"zero amount\");\n        require(_amount <= limitPerWallet, \"can't mint so much tokens\"); // this is per tx or overall? if overall we need to change to `_amount <= limitPerWallet - balanceOf(msg.sender)`\n        require(totalSupply() + _amount <= maxMintSupply, \"max supply exceeded\");\n        require(msg.value >= price * _amount , \"value sent is not correct\");\n\n       _safeMint(_msgSender(), _amount);\n    }\n\n    function claim() external payable {\n        // add bool claimState and require?\n        require(externalBalanceOf(msg.sender) > 0, \"nothing to claim\");\n        require(!_claimed[msg.sender], \"already claimed\");\n        require(externalBalanceOf(msg.sender) <= limitPerWallet, \"can't mint so much tokens\"); // this is per tx or overall? if overall we need to change to `externalBalanceOf(msg.sender) <= limitPerWallet - balanceOf(msg.sender)`\n        require(totalSupply() + externalBalanceOf(msg.sender) <= maxMintSupply, \"max supply exceeded\");\n\n        _safeMint(_msgSender(), externalBalanceOf(msg.sender));\n\n        _claimed[msg.sender] = true;\n    }\n\n    function withdraw() public onlyOwner {\n        payable(msg.sender).transfer(address(this).balance);\n    }\n\n    function _baseURI() internal view override returns (string memory) {\n        return baseURI;\n    }\n}",
  "sourcePath": "C:\\xampp\\htdocs\\richapesclub\\contracts\\RichApesClub.sol",
  "compiler": {
    "name": "solc",
    "version": "0.8.11+commit.d7f03943.Emscripten.clang"
  },
  "schemaVersion": "3.4.4",
  "updatedAt": "2022-02-18T20:45:09.909Z",
  "networkType": "ethereum",
  "devdoc": {
    "kind": "dev",
    "methods": {
      "approve(address,uint256)": {
        "details": "See {IERC721-approve}."
      },
      "balanceOf(address)": {
        "details": "See {IERC721-balanceOf}."
      },
      "getApproved(uint256)": {
        "details": "See {IERC721-getApproved}."
      },
      "isApprovedForAll(address,address)": {
        "details": "See {IERC721-isApprovedForAll}."
      },
      "name()": {
        "details": "See {IERC721Metadata-name}."
      },
      "owner()": {
        "details": "Returns the address of the current owner."
      },
      "ownerOf(uint256)": {
        "details": "See {IERC721-ownerOf}."
      },
      "renounceOwnership()": {
        "details": "Leaves the contract without owner. It will not be possible to call `onlyOwner` functions anymore. Can only be called by the current owner. NOTE: Renouncing ownership will leave the contract without an owner, thereby removing any functionality that is only available to the owner."
      },
      "safeTransferFrom(address,address,uint256)": {
        "details": "See {IERC721-safeTransferFrom}."
      },
      "safeTransferFrom(address,address,uint256,bytes)": {
        "details": "See {IERC721-safeTransferFrom}."
      },
      "setApprovalForAll(address,bool)": {
        "details": "See {IERC721-setApprovalForAll}."
      },
      "supportsInterface(bytes4)": {
        "details": "See {IERC165-supportsInterface}."
      },
      "symbol()": {
        "details": "See {IERC721Metadata-symbol}."
      },
      "tokenByIndex(uint256)": {
        "details": "See {IERC721Enumerable-tokenByIndex}."
      },
      "tokenOfOwnerByIndex(address,uint256)": {
        "details": "See {IERC721Enumerable-tokenOfOwnerByIndex}. This read function is O(collectionSize). If calling from a separate contract, be sure to test gas first. It may also degrade with extremely large collection sizes (e.g >> 10000), test for your use case."
      },
      "tokenURI(uint256)": {
        "details": "See {IERC721Metadata-tokenURI}."
      },
      "totalSupply()": {
        "details": "See {IERC721Enumerable-totalSupply}."
      },
      "transferFrom(address,address,uint256)": {
        "details": "See {IERC721-transferFrom}."
      },
      "transferOwnership(address)": {
        "details": "Transfers ownership of the contract to a new account (`newOwner`). Can only be called by the current owner."
      }
    },
    "version": 1
  },
  "userdoc": {
    "kind": "user",
    "methods": {},
    "version": 1
  }
}